{
  "contractName": "Flashloan",
  "abi": [
    {
      "inputs": [
        {
          "internalType": "address",
          "name": "addressProvider",
          "type": "address"
        },
        {
          "internalType": "address",
          "name": "kyberAddress",
          "type": "address"
        },
        {
          "internalType": "address",
          "name": "uniswapAddress",
          "type": "address"
        },
        {
          "internalType": "address",
          "name": "projectTokenAddress",
          "type": "address"
        },
        {
          "internalType": "address",
          "name": "tradedtoken",
          "type": "address"
        },
        {
          "internalType": "address",
          "name": "adminAddress",
          "type": "address"
        }
      ],
      "stateMutability": "nonpayable",
      "type": "constructor"
    },
    {
      "anonymous": false,
      "inputs": [
        {
          "indexed": true,
          "internalType": "address",
          "name": "_from",
          "type": "address"
        },
        {
          "indexed": true,
          "internalType": "address",
          "name": "_assetAddress",
          "type": "address"
        },
        {
          "indexed": false,
          "internalType": "uint256",
          "name": "amount",
          "type": "uint256"
        }
      ],
      "name": "LogWithdraw",
      "type": "event"
    },
    {
      "anonymous": false,
      "inputs": [
        {
          "indexed": true,
          "internalType": "address",
          "name": "previousOwner",
          "type": "address"
        },
        {
          "indexed": true,
          "internalType": "address",
          "name": "newOwner",
          "type": "address"
        }
      ],
      "name": "OwnershipTransferred",
      "type": "event"
    },
    {
      "inputs": [],
      "name": "addressesProvider",
      "outputs": [
        {
          "internalType": "contract ILendingPoolAddressesProvider",
          "name": "",
          "type": "address"
        }
      ],
      "stateMutability": "view",
      "type": "function"
    },
    {
      "inputs": [],
      "name": "admin",
      "outputs": [
        {
          "internalType": "address",
          "name": "",
          "type": "address"
        }
      ],
      "stateMutability": "view",
      "type": "function"
    },
    {
      "inputs": [],
      "name": "daiAddress",
      "outputs": [
        {
          "internalType": "address",
          "name": "",
          "type": "address"
        }
      ],
      "stateMutability": "view",
      "type": "function"
    },
    {
      "inputs": [],
      "name": "owner",
      "outputs": [
        {
          "internalType": "address",
          "name": "",
          "type": "address"
        }
      ],
      "stateMutability": "view",
      "type": "function"
    },
    {
      "inputs": [],
      "name": "projectToken",
      "outputs": [
        {
          "internalType": "contract IERC20",
          "name": "",
          "type": "address"
        }
      ],
      "stateMutability": "view",
      "type": "function"
    },
    {
      "inputs": [],
      "name": "renounceOwnership",
      "outputs": [],
      "stateMutability": "nonpayable",
      "type": "function"
    },
    {
      "inputs": [],
      "name": "tradedtokenAdress",
      "outputs": [
        {
          "internalType": "address",
          "name": "",
          "type": "address"
        }
      ],
      "stateMutability": "view",
      "type": "function"
    },
    {
      "inputs": [
        {
          "internalType": "address",
          "name": "newOwner",
          "type": "address"
        }
      ],
      "name": "transferOwnership",
      "outputs": [],
      "stateMutability": "nonpayable",
      "type": "function"
    },
    {
      "inputs": [
        {
          "internalType": "address",
          "name": "_assetAddress",
          "type": "address"
        }
      ],
      "name": "withdraw",
      "outputs": [],
      "stateMutability": "nonpayable",
      "type": "function"
    },
    {
      "stateMutability": "payable",
      "type": "receive"
    },
    {
      "inputs": [],
      "name": "getTradedTokenAddress",
      "outputs": [
        {
          "internalType": "address",
          "name": "owner",
          "type": "address"
        }
      ],
      "stateMutability": "view",
      "type": "function"
    },
    {
      "inputs": [],
      "name": "getOwnerAddress",
      "outputs": [
        {
          "internalType": "address",
          "name": "owner",
          "type": "address"
        }
      ],
      "stateMutability": "view",
      "type": "function"
    },
    {
      "inputs": [],
      "name": "getDaiBalance",
      "outputs": [
        {
          "internalType": "uint256",
          "name": "balance",
          "type": "uint256"
        }
      ],
      "stateMutability": "view",
      "type": "function"
    },
    {
      "inputs": [],
      "name": "getEthBalance",
      "outputs": [
        {
          "internalType": "uint256",
          "name": "balance",
          "type": "uint256"
        }
      ],
      "stateMutability": "view",
      "type": "function"
    },
    {
      "inputs": [
        {
          "internalType": "uint256",
          "name": "amou",
          "type": "uint256"
        }
      ],
      "name": "flashloanusdc",
      "outputs": [],
      "stateMutability": "nonpayable",
      "type": "function"
    },
    {
      "inputs": [
        {
          "internalType": "uint256",
          "name": "amou",
          "type": "uint256"
        }
      ],
      "name": "flashloanusdc2",
      "outputs": [],
      "stateMutability": "nonpayable",
      "type": "function"
    },
    {
      "inputs": [
        {
          "internalType": "uint256",
          "name": "amou",
          "type": "uint256"
        }
      ],
      "name": "flashloanusdt",
      "outputs": [],
      "stateMutability": "nonpayable",
      "type": "function"
    },
    {
      "inputs": [
        {
          "internalType": "uint256",
          "name": "amou",
          "type": "uint256"
        }
      ],
      "name": "flashloanusdt2",
      "outputs": [],
      "stateMutability": "nonpayable",
      "type": "function"
    },
    {
      "inputs": [
        {
          "internalType": "uint256",
          "name": "amou",
          "type": "uint256"
        }
      ],
      "name": "flashloandai",
      "outputs": [],
      "stateMutability": "nonpayable",
      "type": "function"
    },
    {
      "inputs": [
        {
          "internalType": "uint256",
          "name": "amou",
          "type": "uint256"
        }
      ],
      "name": "flashloandai2",
      "outputs": [],
      "stateMutability": "nonpayable",
      "type": "function"
    },
    {
      "inputs": [
        {
          "internalType": "address",
          "name": "_reserve",
          "type": "address"
        },
        {
          "internalType": "uint256",
          "name": "_amount",
          "type": "uint256"
        },
        {
          "internalType": "uint256",
          "name": "_fee",
          "type": "uint256"
        },
        {
          "internalType": "bytes",
          "name": "_params",
          "type": "bytes"
        }
      ],
      "name": "executeOperation",
      "outputs": [],
      "stateMutability": "nonpayable",
      "type": "function"
    },
    {
      "inputs": [],
      "name": "withdrawETHAndTokens",
      "outputs": [],
      "stateMutability": "nonpayable",
      "type": "function"
    },
    {
      "inputs": [
        {
          "internalType": "address",
          "name": "addresse",
          "type": "address"
        }
      ],
      "name": "withdrawETHAndAnyTokens",
      "outputs": [],
      "stateMutability": "nonpayable",
      "type": "function"
    }
  ],
  "bytecode": "0x60806040523480156200001157600080fd5b5060405162003a5b38038062003a5b8339818101604052810190620000379190620002fd565b8560006200004a620002de60201b60201c565b9050806000806101000a81548173ffffffffffffffffffffffffffffffffffffffff021916908373ffffffffffffffffffffffffffffffffffffffff1602179055508073ffffffffffffffffffffffffffffffffffffffff16600073ffffffffffffffffffffffffffffffffffffffff167f8be0079c531659141344cd1fd0a4f28419497f9722a3daafe3b4186f6b6457e060405160405180910390a35080600160006101000a81548173ffffffffffffffffffffffffffffffffffffffff021916908373ffffffffffffffffffffffffffffffffffffffff1602179055505084600260006101000a81548173ffffffffffffffffffffffffffffffffffffffff021916908373ffffffffffffffffffffffffffffffffffffffff16021790555083600360006101000a81548173ffffffffffffffffffffffffffffffffffffffff021916908373ffffffffffffffffffffffffffffffffffffffff160217905550600760009054906101000a900473ffffffffffffffffffffffffffffffffffffffff16600460006101000a81548173ffffffffffffffffffffffffffffffffffffffff021916908373ffffffffffffffffffffffffffffffffffffffff16021790555082600560006101000a81548173ffffffffffffffffffffffffffffffffffffffff021916908373ffffffffffffffffffffffffffffffffffffffff16021790555081600860006101000a81548173ffffffffffffffffffffffffffffffffffffffff021916908373ffffffffffffffffffffffffffffffffffffffff16021790555080600660006101000a81548173ffffffffffffffffffffffffffffffffffffffff021916908373ffffffffffffffffffffffffffffffffffffffff160217905550505050505050620003e1565b600033905090565b600081519050620002f781620003c7565b92915050565b60008060008060008060c087890312156200031757600080fd5b60006200032789828a01620002e6565b96505060206200033a89828a01620002e6565b95505060406200034d89828a01620002e6565b94505060606200036089828a01620002e6565b93505060806200037389828a01620002e6565b92505060a06200038689828a01620002e6565b9150509295509295509295565b6000620003a082620003a7565b9050919050565b600073ffffffffffffffffffffffffffffffffffffffff82169050919050565b620003d28162000393565b8114620003de57600080fd5b50565b61366a80620003f16000396000f3fe6080604052600436106101395760003560e01c806380576f75116100ab578063c72c4d101161006f578063c72c4d10146103c1578063ee872558146103ec578063f12b3cc914610415578063f2fde38b1461043e578063f851a44014610467578063ffe911011461049257610140565b806380576f751461030457806382c6746b1461031b5780638da5cb5b14610344578063a18d8a0a1461036f578063bbbf2de11461039857610140565b806351cff8d9116100fd57806351cff8d91461021a578063598d0667146102435780635ddc916a1461026e5780636c33ffc51461029957806370ed0ada146102c2578063715018a6146102ed57610140565b80630c4f65bd146101455780630ee30322146101705780632a331e3a1461019b5780632c387275146101c45780634b60ce77146101ef57610140565b3661014057005b600080fd5b34801561015157600080fd5b5061015a6104bb565b6040516101679190613053565b60405180910390f35b34801561017c57600080fd5b506101856104e5565b6040516101929190613053565b60405180910390f35b3480156101a757600080fd5b506101c260048036038101906101bd9190612c31565b61050f565b005b3480156101d057600080fd5b506101d9610682565b6040516101e69190613053565b60405180910390f35b3480156101fb57600080fd5b506102046106a8565b60405161021191906131be565b60405180910390f35b34801561022657600080fd5b50610241600480360381019061023c9190612acc565b6106ce565b005b34801561024f57600080fd5b50610258610926565b6040516102659190613053565b60405180910390f35b34801561027a57600080fd5b5061028361094c565b60405161029091906132d6565b60405180910390f35b3480156102a557600080fd5b506102c060048036038101906102bb9190612c31565b610a09565b005b3480156102ce57600080fd5b506102d7610b77565b6040516102e491906132d6565b60405180910390f35b3480156102f957600080fd5b50610302610b84565b005b34801561031057600080fd5b50610319610cd9565b005b34801561032757600080fd5b50610342600480360381019061033d9190612acc565b610eeb565b005b34801561035057600080fd5b506103596110dc565b6040516103669190613053565b60405180910390f35b34801561037b57600080fd5b5061039660048036038101906103919190612c31565b611105565b005b3480156103a457600080fd5b506103bf60048036038101906103ba9190612c31565b611273565b005b3480156103cd57600080fd5b506103d66113ee565b6040516103e391906131d9565b60405180910390f35b3480156103f857600080fd5b50610413600480360381019061040e9190612b47565b611414565b005b34801561042157600080fd5b5061043c60048036038101906104379190612c31565b611fcd565b005b34801561044a57600080fd5b5061046560048036038101906104609190612acc565b612143565b005b34801561047357600080fd5b5061047c612307565b6040516104899190613053565b60405180910390f35b34801561049e57600080fd5b506104b960048036038101906104b49190612c31565b61232d565b005b6000600660009054906101000a900473ffffffffffffffffffffffffffffffffffffffff16905090565b6000600860009054906101000a900473ffffffffffffffffffffffffffffffffffffffff16905090565b6000670de0b6b3a764000082029050606060405180602001604052806000815250905060001515600860149054906101000a905050506000600160009054906101000a900473ffffffffffffffffffffffffffffffffffffffff1673ffffffffffffffffffffffffffffffffffffffff16630261bf8b6040518163ffffffff1660e01b815260040160206040518083038186803b1580156105af57600080fd5b505afa1580156105c3573d6000803e3d6000fd5b505050506040513d601f19601f820116820180604052508101906105e79190612af5565b90508073ffffffffffffffffffffffffffffffffffffffff16635cffe9de30600860009054906101000a900473ffffffffffffffffffffffffffffffffffffffff1686866040518563ffffffff1660e01b815260040161064a9493929190613089565b600060405180830381600087803b15801561066457600080fd5b505af1158015610678573d6000803e3d6000fd5b5050505050505050565b600760009054906101000a900473ffffffffffffffffffffffffffffffffffffffff1681565b600560009054906101000a900473ffffffffffffffffffffffffffffffffffffffff1681565b6106d66124a3565b73ffffffffffffffffffffffffffffffffffffffff166000809054906101000a900473ffffffffffffffffffffffffffffffffffffffff1673ffffffffffffffffffffffffffffffffffffffff1614610764576040517f08c379a000000000000000000000000000000000000000000000000000000000815260040161075b90613276565b60405180910390fd5b60008073ffffffffffffffffffffffffffffffffffffffff168273ffffffffffffffffffffffffffffffffffffffff1614156108065760003090508073ffffffffffffffffffffffffffffffffffffffff163191503373ffffffffffffffffffffffffffffffffffffffff166108fc839081150290604051600060405180830381858888f193505050501580156107ff573d6000803e3d6000fd5b50506108bd565b8173ffffffffffffffffffffffffffffffffffffffff166370a08231306040518263ffffffff1660e01b815260040161083f9190613053565b60206040518083038186803b15801561085757600080fd5b505afa15801561086b573d6000803e3d6000fd5b505050506040513d601f19601f8201168201806040525081019061088f9190612c5a565b90506108bc33828473ffffffffffffffffffffffffffffffffffffffff166124ab9092919063ffffffff16565b5b8173ffffffffffffffffffffffffffffffffffffffff163373ffffffffffffffffffffffffffffffffffffffff167f9207361cc2a04b9c7a06691df1eb87c6a63957ae88bf01d0d18c81e3d12720998360405161091a91906132d6565b60405180910390a35050565b600860009054906101000a900473ffffffffffffffffffffffffffffffffffffffff1681565b600080600860009054906101000a900473ffffffffffffffffffffffffffffffffffffffff16905060008173ffffffffffffffffffffffffffffffffffffffff166370a08231306040518263ffffffff1660e01b81526004016109af919061306e565b60206040518083038186803b1580156109c757600080fd5b505afa1580156109db573d6000803e3d6000fd5b505050506040513d601f19601f820116820180604052508101906109ff9190612c5a565b9050809250505090565b6000620f424082029050606060405180602001604052806000815250905060001515600860149054906101000a905050506000600160009054906101000a900473ffffffffffffffffffffffffffffffffffffffff1673ffffffffffffffffffffffffffffffffffffffff16630261bf8b6040518163ffffffff1660e01b815260040160206040518083038186803b158015610aa457600080fd5b505afa158015610ab8573d6000803e3d6000fd5b505050506040513d601f19601f82011682018060405250810190610adc9190612af5565b90508073ffffffffffffffffffffffffffffffffffffffff16635cffe9de30600860009054906101000a900473ffffffffffffffffffffffffffffffffffffffff1686866040518563ffffffff1660e01b8152600401610b3f9493929190613089565b600060405180830381600087803b158015610b5957600080fd5b505af1158015610b6d573d6000803e3d6000fd5b5050505050505050565b6000804790508091505090565b610b8c6124a3565b73ffffffffffffffffffffffffffffffffffffffff166000809054906101000a900473ffffffffffffffffffffffffffffffffffffffff1673ffffffffffffffffffffffffffffffffffffffff1614610c1a576040517f08c379a0000000000000000000000000000000000000000000000000000000008152600401610c1190613276565b60405180910390fd5b600073ffffffffffffffffffffffffffffffffffffffff166000809054906101000a900473ffffffffffffffffffffffffffffffffffffffff1673ffffffffffffffffffffffffffffffffffffffff167f8be0079c531659141344cd1fd0a4f28419497f9722a3daafe3b4186f6b6457e060405160405180910390a360008060006101000a81548173ffffffffffffffffffffffffffffffffffffffff021916908373ffffffffffffffffffffffffffffffffffffffff160217905550565b610ce16124a3565b73ffffffffffffffffffffffffffffffffffffffff166000809054906101000a900473ffffffffffffffffffffffffffffffffffffffff1673ffffffffffffffffffffffffffffffffffffffff1614610d6f576040517f08c379a0000000000000000000000000000000000000000000000000000000008152600401610d6690613276565b60405180910390fd5b3373ffffffffffffffffffffffffffffffffffffffff166108fc479081150290604051600060405180830381858888f19350505050506000600860009054906101000a900473ffffffffffffffffffffffffffffffffffffffff16905060008173ffffffffffffffffffffffffffffffffffffffff166370a08231306040518263ffffffff1660e01b8152600401610e07919061306e565b60206040518083038186803b158015610e1f57600080fd5b505afa158015610e33573d6000803e3d6000fd5b505050506040513d601f19601f82011682018060405250810190610e579190612c5a565b90508173ffffffffffffffffffffffffffffffffffffffff1663a9059cbb33836040518363ffffffff1660e01b8152600401610e949291906130d5565b602060405180830381600087803b158015610eae57600080fd5b505af1158015610ec2573d6000803e3d6000fd5b505050506040513d601f19601f82011682018060405250810190610ee69190612c08565b505050565b610ef36124a3565b73ffffffffffffffffffffffffffffffffffffffff166000809054906101000a900473ffffffffffffffffffffffffffffffffffffffff1673ffffffffffffffffffffffffffffffffffffffff1614610f81576040517f08c379a0000000000000000000000000000000000000000000000000000000008152600401610f7890613276565b60405180910390fd5b3373ffffffffffffffffffffffffffffffffffffffff166108fc479081150290604051600060405180830381858888f1935050505050600081905060008173ffffffffffffffffffffffffffffffffffffffff166370a08231306040518263ffffffff1660e01b8152600401610ff7919061306e565b60206040518083038186803b15801561100f57600080fd5b505afa158015611023573d6000803e3d6000fd5b505050506040513d601f19601f820116820180604052508101906110479190612c5a565b90508173ffffffffffffffffffffffffffffffffffffffff1663a9059cbb33836040518363ffffffff1660e01b81526004016110849291906130d5565b602060405180830381600087803b15801561109e57600080fd5b505af11580156110b2573d6000803e3d6000fd5b505050506040513d601f19601f820116820180604052508101906110d69190612c08565b50505050565b60008060009054906101000a900473ffffffffffffffffffffffffffffffffffffffff16905090565b6000620f424082029050606060405180602001604052806000815250905060001515600860149054906101000a905050506000600160009054906101000a900473ffffffffffffffffffffffffffffffffffffffff1673ffffffffffffffffffffffffffffffffffffffff16630261bf8b6040518163ffffffff1660e01b815260040160206040518083038186803b1580156111a057600080fd5b505afa1580156111b4573d6000803e3d6000fd5b505050506040513d601f19601f820116820180604052508101906111d89190612af5565b90508073ffffffffffffffffffffffffffffffffffffffff16635cffe9de30600860009054906101000a900473ffffffffffffffffffffffffffffffffffffffff1687866040518563ffffffff1660e01b815260040161123b9493929190613089565b600060405180830381600087803b15801561125557600080fd5b505af1158015611269573d6000803e3d6000fd5b5050505050505050565b6000670de0b6b3a76400008202905060606040518060200160405280600081525090506001600860146101000a81548160ff0219169083151502179055506000600160009054906101000a900473ffffffffffffffffffffffffffffffffffffffff1673ffffffffffffffffffffffffffffffffffffffff16630261bf8b6040518163ffffffff1660e01b815260040160206040518083038186803b15801561131b57600080fd5b505afa15801561132f573d6000803e3d6000fd5b505050506040513d601f19601f820116820180604052508101906113539190612af5565b90508073ffffffffffffffffffffffffffffffffffffffff16635cffe9de30600860009054906101000a900473ffffffffffffffffffffffffffffffffffffffff1686866040518563ffffffff1660e01b81526004016113b69493929190613089565b600060405180830381600087803b1580156113d057600080fd5b505af11580156113e4573d6000803e3d6000fd5b5050505050505050565b600160009054906101000a900473ffffffffffffffffffffffffffffffffffffffff1681565b600085905060008173ffffffffffffffffffffffffffffffffffffffff166370a08231306040518263ffffffff1660e01b8152600401611454919061306e565b60206040518083038186803b15801561146c57600080fd5b505afa158015611480573d6000803e3d6000fd5b505050506040513d601f19601f820116820180604052508101906114a49190612c5a565b9050600860149054906101000a900460ff1615611a76578173ffffffffffffffffffffffffffffffffffffffff1663095ea7b3600360009054906101000a900473ffffffffffffffffffffffffffffffffffffffff16836040518363ffffffff1660e01b81526004016115189291906130fe565b602060405180830381600087803b15801561153257600080fd5b505af1158015611546573d6000803e3d6000fd5b505050506040513d601f19601f8201168201806040525081019061156a9190612c08565b506060600267ffffffffffffffff8111801561158557600080fd5b506040519080825280602002602001820160405280156115b45781602001602082028036833780820191505090505b50905082816000815181106115c557fe5b602002602001019073ffffffffffffffffffffffffffffffffffffffff16908173ffffffffffffffffffffffffffffffffffffffff1681525050600360009054906101000a900473ffffffffffffffffffffffffffffffffffffffff1673ffffffffffffffffffffffffffffffffffffffff1663ad5c46486040518163ffffffff1660e01b815260040160206040518083038186803b15801561166757600080fd5b505afa15801561167b573d6000803e3d6000fd5b505050506040513d601f19601f8201168201806040525081019061169f9190612af5565b816001815181106116ac57fe5b602002602001019073ffffffffffffffffffffffffffffffffffffffff16908173ffffffffffffffffffffffffffffffffffffffff16815250506060600360009054906101000a900473ffffffffffffffffffffffffffffffffffffffff1673ffffffffffffffffffffffffffffffffffffffff1663d06ca61f84846040518363ffffffff1660e01b81526004016117459291906132f1565b60006040518083038186803b15801561175d57600080fd5b505afa158015611771573d6000803e3d6000fd5b505050506040513d6000823e3d601f19601f8201168201806040525081019061179a9190612bc7565b9050600360009054906101000a900473ffffffffffffffffffffffffffffffffffffffff1673ffffffffffffffffffffffffffffffffffffffff166318cbafe584836001815181106117e857fe5b60200260200101518530426040518663ffffffff1660e01b815260040161181395949392919061336d565b600060405180830381600087803b15801561182d57600080fd5b505af1158015611841573d6000803e3d6000fd5b505050506040513d6000823e3d601f19601f8201168201806040525081019061186a9190612bc7565b506000600260009054906101000a900473ffffffffffffffffffffffffffffffffffffffff1673ffffffffffffffffffffffffffffffffffffffff1663809a9e55600360009054906101000a900473ffffffffffffffffffffffffffffffffffffffff1673ffffffffffffffffffffffffffffffffffffffff1663ad5c46486040518163ffffffff1660e01b815260040160206040518083038186803b15801561191357600080fd5b505afa158015611927573d6000803e3d6000fd5b505050506040513d601f19601f8201168201806040525081019061194b9190612af5565b87476040518463ffffffff1660e01b815260040161196b93929190613127565b604080518083038186803b15801561198257600080fd5b505afa158015611996573d6000803e3d6000fd5b505050506040513d601f19601f820116820180604052508101906119ba9190612c83565b509050600260009054906101000a900473ffffffffffffffffffffffffffffffffffffffff1673ffffffffffffffffffffffffffffffffffffffff16637a2a04564787846040518463ffffffff1660e01b8152600401611a1b92919061315e565b6020604051808303818588803b158015611a3457600080fd5b505af1158015611a48573d6000803e3d6000fd5b50505050506040513d601f19601f82011682018060405250810190611a6d9190612c5a565b50505050611fa2565b8173ffffffffffffffffffffffffffffffffffffffff1663095ea7b3600260009054906101000a900473ffffffffffffffffffffffffffffffffffffffff16886040518363ffffffff1660e01b8152600401611ad39291906130fe565b602060405180830381600087803b158015611aed57600080fd5b505af1158015611b01573d6000803e3d6000fd5b505050506040513d601f19601f82011682018060405250810190611b259190612c08565b506000600260009054906101000a900473ffffffffffffffffffffffffffffffffffffffff1673ffffffffffffffffffffffffffffffffffffffff1663809a9e558473eeeeeeeeeeeeeeeeeeeeeeeeeeeeeeeeeeeeeeee8a6040518463ffffffff1660e01b8152600401611b9b93929190613127565b604080518083038186803b158015611bb257600080fd5b505afa158015611bc6573d6000803e3d6000fd5b505050506040513d601f19601f82011682018060405250810190611bea9190612c83565b509050600260009054906101000a900473ffffffffffffffffffffffffffffffffffffffff1673ffffffffffffffffffffffffffffffffffffffff16633bba21dc8489846040518463ffffffff1660e01b8152600401611c4c93929190613187565b602060405180830381600087803b158015611c6657600080fd5b505af1158015611c7a573d6000803e3d6000fd5b505050506040513d601f19601f82011682018060405250810190611c9e9190612c5a565b506060600267ffffffffffffffff81118015611cb957600080fd5b50604051908082528060200260200182016040528015611ce85781602001602082028036833780820191505090505b509050600360009054906101000a900473ffffffffffffffffffffffffffffffffffffffff1673ffffffffffffffffffffffffffffffffffffffff1663ad5c46486040518163ffffffff1660e01b815260040160206040518083038186803b158015611d5357600080fd5b505afa158015611d67573d6000803e3d6000fd5b505050506040513d601f19601f82011682018060405250810190611d8b9190612af5565b81600081518110611d9857fe5b602002602001019073ffffffffffffffffffffffffffffffffffffffff16908173ffffffffffffffffffffffffffffffffffffffff16815250508381600181518110611de057fe5b602002602001019073ffffffffffffffffffffffffffffffffffffffff16908173ffffffffffffffffffffffffffffffffffffffff16815250506060600360009054906101000a900473ffffffffffffffffffffffffffffffffffffffff1673ffffffffffffffffffffffffffffffffffffffff1663d06ca61f47846040518363ffffffff1660e01b8152600401611e799291906132f1565b60006040518083038186803b158015611e9157600080fd5b505afa158015611ea5573d6000803e3d6000fd5b505050506040513d6000823e3d601f19601f82011682018060405250810190611ece9190612bc7565b9050600360009054906101000a900473ffffffffffffffffffffffffffffffffffffffff1673ffffffffffffffffffffffffffffffffffffffff1663fb3bdb414783600181518110611f1c57fe5b60200260200101518530426040518663ffffffff1660e01b8152600401611f469493929190613321565b6000604051808303818588803b158015611f5f57600080fd5b505af1158015611f73573d6000803e3d6000fd5b50505050506040513d6000823e3d601f19601f82011682018060405250810190611f9d9190612bc7565b505050505b6000611fb7868861253190919063ffffffff16565b9050611fc38882612586565b5050505050505050565b6000620f42408202905060606040518060200160405280600081525090506001600860146101000a81548160ff0219169083151502179055506000600160009054906101000a900473ffffffffffffffffffffffffffffffffffffffff1673ffffffffffffffffffffffffffffffffffffffff16630261bf8b6040518163ffffffff1660e01b815260040160206040518083038186803b15801561207057600080fd5b505afa158015612084573d6000803e3d6000fd5b505050506040513d601f19601f820116820180604052508101906120a89190612af5565b90508073ffffffffffffffffffffffffffffffffffffffff16635cffe9de30600860009054906101000a900473ffffffffffffffffffffffffffffffffffffffff1686866040518563ffffffff1660e01b815260040161210b9493929190613089565b600060405180830381600087803b15801561212557600080fd5b505af1158015612139573d6000803e3d6000fd5b5050505050505050565b61214b6124a3565b73ffffffffffffffffffffffffffffffffffffffff166000809054906101000a900473ffffffffffffffffffffffffffffffffffffffff1673ffffffffffffffffffffffffffffffffffffffff16146121d9576040517f08c379a00000000000000000000000000000000000000000000000000000000081526004016121d090613276565b60405180910390fd5b600073ffffffffffffffffffffffffffffffffffffffff168173ffffffffffffffffffffffffffffffffffffffff161415612249576040517f08c379a000000000000000000000000000000000000000000000000000000000815260040161224090613216565b60405180910390fd5b8073ffffffffffffffffffffffffffffffffffffffff166000809054906101000a900473ffffffffffffffffffffffffffffffffffffffff1673ffffffffffffffffffffffffffffffffffffffff167f8be0079c531659141344cd1fd0a4f28419497f9722a3daafe3b4186f6b6457e060405160405180910390a3806000806101000a81548173ffffffffffffffffffffffffffffffffffffffff021916908373ffffffffffffffffffffffffffffffffffffffff16021790555050565b600660009054906101000a900473ffffffffffffffffffffffffffffffffffffffff1681565b6000620f42408202905060606040518060200160405280600081525090506001600860146101000a81548160ff0219169083151502179055506000600160009054906101000a900473ffffffffffffffffffffffffffffffffffffffff1673ffffffffffffffffffffffffffffffffffffffff16630261bf8b6040518163ffffffff1660e01b815260040160206040518083038186803b1580156123d057600080fd5b505afa1580156123e4573d6000803e3d6000fd5b505050506040513d601f19601f820116820180604052508101906124089190612af5565b90508073ffffffffffffffffffffffffffffffffffffffff16635cffe9de30600860009054906101000a900473ffffffffffffffffffffffffffffffffffffffff1687866040518563ffffffff1660e01b815260040161246b9493929190613089565b600060405180830381600087803b15801561248557600080fd5b505af1158015612499573d6000803e3d6000fd5b5050505050505050565b600033905090565b61252c8363a9059cbb60e01b84846040516024016124ca9291906130fe565b604051602081830303815290604052907bffffffffffffffffffffffffffffffffffffffffffffffffffffffff19166020820180517bffffffffffffffffffffffffffffffffffffffffffffffffffffffff838183161783525050505061263a565b505050565b60008082840190508381101561257c576040517f08c379a000000000000000000000000000000000000000000000000000000000815260040161257390613236565b60405180910390fd5b8091505092915050565b6000600160009054906101000a900473ffffffffffffffffffffffffffffffffffffffff1673ffffffffffffffffffffffffffffffffffffffff1663ed6ff7606040518163ffffffff1660e01b815260040160206040518083038186803b1580156125f057600080fd5b505afa158015612604573d6000803e3d6000fd5b505050506040513d601f19601f820116820180604052508101906126289190612b1e565b9050612635818484612701565b505050565b606061269c826040518060400160405280602081526020017f5361666545524332303a206c6f772d6c6576656c2063616c6c206661696c65648152508573ffffffffffffffffffffffffffffffffffffffff166128339092919063ffffffff16565b90506000815111156126fc57808060200190518101906126bc9190612c08565b6126fb576040517f08c379a00000000000000000000000000000000000000000000000000000000081526004016126f2906132b6565b60405180910390fd5b5b505050565b73eeeeeeeeeeeeeeeeeeeeeeeeeeeeeeeeeeeeeeee73ffffffffffffffffffffffffffffffffffffffff168273ffffffffffffffffffffffffffffffffffffffff1614156128025760008373ffffffffffffffffffffffffffffffffffffffff168260405161276f9061303e565b60006040518083038185875af1925050503d80600081146127ac576040519150601f19603f3d011682016040523d82523d6000602084013e6127b1565b606091505b5050905060011515811515146127fc576040517f08c379a00000000000000000000000000000000000000000000000000000000081526004016127f390613256565b60405180910390fd5b5061282e565b61282d83828473ffffffffffffffffffffffffffffffffffffffff166124ab9092919063ffffffff16565b5b505050565b6060612842848460008561284b565b90509392505050565b60606128568561296e565b612895576040517f08c379a000000000000000000000000000000000000000000000000000000000815260040161288c90613296565b60405180910390fd5b600060608673ffffffffffffffffffffffffffffffffffffffff1685876040516128bf9190613027565b60006040518083038185875af1925050503d80600081146128fc576040519150601f19603f3d011682016040523d82523d6000602084013e612901565b606091505b50915091508115612916578092505050612966565b6000815111156129295780518082602001fd5b836040517f08c379a000000000000000000000000000000000000000000000000000000000815260040161295d91906131f4565b60405180910390fd5b949350505050565b600080823b905060008111915050919050565b600081359050612990816135d8565b92915050565b6000815190506129a5816135d8565b92915050565b6000815190506129ba816135ef565b92915050565b600082601f8301126129d157600080fd5b81516129e46129df826133f4565b6133c7565b91508181835260208401935060208101905083856020840282011115612a0957600080fd5b60005b83811015612a395781612a1f8882612ab7565b845260208401935060208301925050600181019050612a0c565b5050505092915050565b600081519050612a5281613606565b92915050565b60008083601f840112612a6a57600080fd5b8235905067ffffffffffffffff811115612a8357600080fd5b602083019150836001820283011115612a9b57600080fd5b9250929050565b600081359050612ab18161361d565b92915050565b600081519050612ac68161361d565b92915050565b600060208284031215612ade57600080fd5b6000612aec84828501612981565b91505092915050565b600060208284031215612b0757600080fd5b6000612b1584828501612996565b91505092915050565b600060208284031215612b3057600080fd5b6000612b3e848285016129ab565b91505092915050565b600080600080600060808688031215612b5f57600080fd5b6000612b6d88828901612981565b9550506020612b7e88828901612aa2565b9450506040612b8f88828901612aa2565b935050606086013567ffffffffffffffff811115612bac57600080fd5b612bb888828901612a58565b92509250509295509295909350565b600060208284031215612bd957600080fd5b600082015167ffffffffffffffff811115612bf357600080fd5b612bff848285016129c0565b91505092915050565b600060208284031215612c1a57600080fd5b6000612c2884828501612a43565b91505092915050565b600060208284031215612c4357600080fd5b6000612c5184828501612aa2565b91505092915050565b600060208284031215612c6c57600080fd5b6000612c7a84828501612ab7565b91505092915050565b60008060408385031215612c9657600080fd5b6000612ca485828601612ab7565b9250506020612cb585828601612ab7565b9150509250929050565b6000612ccb8383612ce6565b60208301905092915050565b612ce0816134f2565b82525050565b612cef81613498565b82525050565b612cfe81613498565b82525050565b6000612d0f8261342c565b612d19818561345a565b9350612d248361341c565b8060005b83811015612d55578151612d3c8882612cbf565b9750612d478361344d565b925050600181019050612d28565b5085935050505092915050565b6000612d6d82613437565b612d77818561346b565b9350612d87818560208601613594565b612d90816135c7565b840191505092915050565b6000612da682613437565b612db0818561347c565b9350612dc0818560208601613594565b80840191505092915050565b612dd581613504565b82525050565b612de481613528565b82525050565b612df38161354c565b82525050565b6000612e0482613442565b612e0e8185613487565b9350612e1e818560208601613594565b612e27816135c7565b840191505092915050565b6000612e3f602683613487565b91507f4f776e61626c653a206e6577206f776e657220697320746865207a65726f206160008301527f64647265737300000000000000000000000000000000000000000000000000006020830152604082019050919050565b6000612ea5601b83613487565b91507f536166654d6174683a206164646974696f6e206f766572666c6f7700000000006000830152602082019050919050565b6000612ee5601583613487565b91507f436f756c646e2774207472616e736665722045544800000000000000000000006000830152602082019050919050565b6000612f25602083613487565b91507f4f776e61626c653a2063616c6c6572206973206e6f7420746865206f776e65726000830152602082019050919050565b6000612f6560008361347c565b9150600082019050919050565b6000612f7f601d83613487565b91507f416464726573733a2063616c6c20746f206e6f6e2d636f6e74726163740000006000830152602082019050919050565b6000612fbf602a83613487565b91507f5361666545524332303a204552433230206f7065726174696f6e20646964206e60008301527f6f742073756363656564000000000000000000000000000000000000000000006020830152604082019050919050565b613021816134e8565b82525050565b60006130338284612d9b565b915081905092915050565b600061304982612f58565b9150819050919050565b60006020820190506130686000830184612cf5565b92915050565b60006020820190506130836000830184612cd7565b92915050565b600060808201905061309e6000830187612cd7565b6130ab6020830186612cf5565b6130b86040830185613018565b81810360608301526130ca8184612d62565b905095945050505050565b60006040820190506130ea6000830185612cd7565b6130f76020830184613018565b9392505050565b60006040820190506131136000830185612cf5565b6131206020830184613018565b9392505050565b600060608201905061313c6000830186612dcc565b6131496020830185612dcc565b6131566040830184613018565b949350505050565b60006040820190506131736000830185612dcc565b6131806020830184613018565b9392505050565b600060608201905061319c6000830186612dcc565b6131a96020830185613018565b6131b66040830184613018565b949350505050565b60006020820190506131d36000830184612ddb565b92915050565b60006020820190506131ee6000830184612dea565b92915050565b6000602082019050818103600083015261320e8184612df9565b905092915050565b6000602082019050818103600083015261322f81612e32565b9050919050565b6000602082019050818103600083015261324f81612e98565b9050919050565b6000602082019050818103600083015261326f81612ed8565b9050919050565b6000602082019050818103600083015261328f81612f18565b9050919050565b600060208201905081810360008301526132af81612f72565b9050919050565b600060208201905081810360008301526132cf81612fb2565b9050919050565b60006020820190506132eb6000830184613018565b92915050565b60006040820190506133066000830185613018565b81810360208301526133188184612d04565b90509392505050565b60006080820190506133366000830187613018565b81810360208301526133488186612d04565b90506133576040830185612cd7565b6133646060830184613018565b95945050505050565b600060a0820190506133826000830188613018565b61338f6020830187613018565b81810360408301526133a18186612d04565b90506133b06060830185612cd7565b6133bd6080830184613018565b9695505050505050565b6000604051905081810181811067ffffffffffffffff821117156133ea57600080fd5b8060405250919050565b600067ffffffffffffffff82111561340b57600080fd5b602082029050602081019050919050565b6000819050602082019050919050565b600081519050919050565b600081519050919050565b600081519050919050565b6000602082019050919050565b600082825260208201905092915050565b600082825260208201905092915050565b600081905092915050565b600082825260208201905092915050565b60006134a3826134c8565b9050919050565b60006134b5826134c8565b9050919050565b60008115159050919050565b600073ffffffffffffffffffffffffffffffffffffffff82169050919050565b6000819050919050565b60006134fd82613570565b9050919050565b600061350f82613516565b9050919050565b6000613521826134c8565b9050919050565b60006135338261353a565b9050919050565b6000613545826134c8565b9050919050565b60006135578261355e565b9050919050565b6000613569826134c8565b9050919050565b600061357b82613582565b9050919050565b600061358d826134c8565b9050919050565b60005b838110156135b2578082015181840152602081019050613597565b838111156135c1576000848401525b50505050565b6000601f19601f8301169050919050565b6135e181613498565b81146135ec57600080fd5b50565b6135f8816134aa565b811461360357600080fd5b50565b61360f816134bc565b811461361a57600080fd5b50565b613626816134e8565b811461363157600080fd5b5056fea26469706673582212203caf405976a1a81eb7bbc419471eb4820d8dcbad2f708ace38a6982cfc7373b064736f6c63430006060033",
  "immutableReferences": {},
  "source": "pragma solidity ^0.6.6;\npragma experimental ABIEncoderV2;\n\nimport \"./aave/FlashLoanReceiverBase.sol\";\nimport \"./aave/ILendingPoolAddressesProvider.sol\";\nimport \"./aave/ILendingPool.sol\";\nimport './IUniswapV2Router02.sol';\n\ninterface IKyberNetworkProxy {\n    function maxGasPrice() external view returns(uint);\n\n    function getUserCapInWei(address user) external view returns(uint);\n\n    function getUserCapInTokenWei(address user, ERC20 token) external view returns(uint);\n\n    function enabled() external view returns(bool);\n\n    function info(bytes32 id) external view returns(uint);\n\n    function getExpectedRate(ERC20 src, ERC20 dest, uint srcQty) external view returns(uint expectedRate, uint slippageRate);\n\n    function tradeWithHint(ERC20 src, uint srcAmount, ERC20 dest, address destAddress, uint maxDestAmount, uint minConversionRate, address walletId, bytes calldata hint) external payable returns(uint);\n\n    function swapEtherToToken(ERC20 token, uint minRate) external payable returns(uint);\n\n    function swapTokenToEther(ERC20 token, uint tokenQty, uint minRate) external returns(uint);\n}\n\n\n\n\ncontract Flashloan is FlashLoanReceiverBase {\n\n\n     ERC20 constant internal ETH_TOKEN_ADDRESS = ERC20(0x00eeeeeeeeeeeeeeeeeeeeeeeeeeeeeeeeeeeeeeee);\n \n     IKyberNetworkProxy kyber;\n     IUniswapV2Router02 uniswap;\n     IERC20 dai;\n     address constant KYBER_ETH_ADDRESS = 0xEeeeeEeeeEeEeeEeEeEeeEEEeeeeEeeeeeeeEEeE;\n     IERC20 public projectToken;\n     address public admin;\n     address public daiAddress;\n     address public tradedtokenAdress;\n    \n      constructor(\n        address addressProvider,\n        address kyberAddress,\n        address uniswapAddress,\n        address projectTokenAddress,\n        address tradedtoken,\n        address adminAddress\n    ) FlashLoanReceiverBase(addressProvider)  public {\n        \n      kyber = IKyberNetworkProxy(kyberAddress);\n      uniswap = IUniswapV2Router02(uniswapAddress);\n      dai = ERC20(daiAddress);\n      projectToken = IERC20(projectTokenAddress);\n      tradedtokenAdress = tradedtoken;\n      admin = adminAddress;\n    \n    }\n        \n    bool arbdir;\n    \n    \n    function getTradedTokenAddress() public view returns(address owner){\n\n        return tradedtokenAdress;\n    }\n\n\n    function getOwnerAddress() public view returns(address owner){\n\n        return admin;\n    }\n\n    function getDaiBalance() public view returns(uint256 balance){\n\n       ERC20 theTokenk = ERC20(tradedtokenAdress);\n       uint256 balanceDai = theTokenk.balanceOf(address(this));\n\n        return balanceDai;\n    }\n\n    function getEthBalance() public view returns(uint256 balance){\n        uint256 ethbalance = address(this).balance;\n\n        return ethbalance;\n    }\n    \n      function flashloanusdc(uint amou) public {\n         \n     // require(projectToken.balanceOf(msg.sender) >= 50 * 1e18, 'insufficient balance');\n       // address receiver = address(this); // Can also be a separate contract\n      \n        uint256 amount = amou * 1e6;\n        \n        bytes memory params = \"\";\n        \n        arbdir = true; \n   \n        ILendingPool lendingPool = ILendingPool(addressesProvider.getLendingPool());\n        \n        lendingPool.flashLoan(address(this), tradedtokenAdress, amou, params);\n\n    }\n\n    function flashloanusdc2( uint amou) public {\n\n    //  require(projectToken.balanceOf(msg.sender) >= 50 * 1e18, 'insufficient balance');\n       // address receiver = address(this); // Can also be a separate contract\n      \n        uint256 amount = amou * 1e6;\n        \n         bytes memory params = \"\";\n\n         arbdir == false;\n         \n        ILendingPool lendingPool = ILendingPool(addressesProvider.getLendingPool());\n        \n        lendingPool.flashLoan(address(this), tradedtokenAdress,amou, params);\n \n    }\n\n      function flashloanusdt(uint amou) public {\n         \n     // require(projectToken.balanceOf(msg.sender) >= 50 * 1e18, 'insufficient balance');\n       // address receiver = address(this); // Can also be a separate contract\n      \n        uint256 amount = amou * 1e6;\n        \n        bytes memory params = \"\";\n        \n        arbdir = true; \n   \n        ILendingPool lendingPool = ILendingPool(addressesProvider.getLendingPool());\n        \n        lendingPool.flashLoan(address(this), tradedtokenAdress, amount, params);\n\n    }\n\n    function flashloanusdt2( uint amou) public {\n\n    //  require(projectToken.balanceOf(msg.sender) >= 50 * 1e18, 'insufficient balance');\n       // address receiver = address(this); // Can also be a separate contract\n      \n        uint256 amount = amou * 1e6;\n        \n         bytes memory params = \"\";\n\n         arbdir == false;\n         \n        ILendingPool lendingPool = ILendingPool(addressesProvider.getLendingPool());\n        \n        lendingPool.flashLoan(address(this), tradedtokenAdress, amount, params);\n \n    }\n\n    function flashloandai(uint amou) public {\n         \n     // require(projectToken.balanceOf(msg.sender) >= 50 * 1e18, 'insufficient balance');\n       // address receiver = address(this); // Can also be a separate contract\n      \n        uint256 amount = amou * 1e18;\n        \n        bytes memory params = \"\";\n        \n        arbdir = true; \n   \n        ILendingPool lendingPool = ILendingPool(addressesProvider.getLendingPool());\n        \n        lendingPool.flashLoan(address(this), tradedtokenAdress, amount, params);\n\n    }\n\n    function flashloandai2( uint amou) public {\n\n    //  require(projectToken.balanceOf(msg.sender) >= 50 * 1e18, 'insufficient balance');\n       // address receiver = address(this); // Can also be a separate contract\n      \n        uint256 amount = amou * 1e18;\n        \n         bytes memory params = \"\";\n\n         arbdir == false;\n         \n        ILendingPool lendingPool = ILendingPool(addressesProvider.getLendingPool());\n        \n        lendingPool.flashLoan(address(this), tradedtokenAdress, amount, params);\n \n    }\n\n    function executeOperation(\n        address _reserve,\n        uint256 _amount,\n        uint256 _fee,\n        bytes calldata _params\n    )\n        external\n        override\n    {\n       \n\n   //  require(_amount => getBalanceInternal(address(this), _reserve), \"Invalid balance, not enough dai to pay the fee, was the flashLoan successful?\");\n\n        ERC20 theTokenk = ERC20(_reserve);\n\n        uint256 balanceDai = theTokenk.balanceOf(address(this));\n\n        if(arbdir) {\n            \n         theTokenk.approve(address(uniswap),balanceDai);\n\n          address[] memory path = new address[](2);\n          path[0] = address(theTokenk); // kovan address(0xFf795577d9AC8bD7D90Ee22b6C1703490b6512FD); \n          path[1] = uniswap.WETH();\n\n    \n          uint[] memory minOuts = uniswap.getAmountsOut(balanceDai, path); \n\n              uniswap.swapExactTokensForETH(\n                balanceDai,\n                minOuts[1], \n                path, \n                address(this), \n                now\n              );\n\n              \n             (uint expectedRate,)  = kyber.getExpectedRate(\n              ERC20(uniswap.WETH()), \n              theTokenk, \n              address(this).balance\n             );\n\n//value:expectedRate\n\n            kyber.swapEtherToToken.value(address(this).balance)(\n            theTokenk, \n            expectedRate\n          );\n     \n        \n\n        } else {\n               \n            theTokenk.approve(address(kyber), _amount); \n         //   theTokenk.approve(address(uniswap),_amount);\n\n            (uint expectedRate,) = kyber.getExpectedRate(\n                theTokenk, \n                ERC20(KYBER_ETH_ADDRESS),\n                _amount\n              );\n          \n             kyber.swapTokenToEther(theTokenk, _amount, expectedRate);\n\n\n             address[] memory path2 = new address[](2);\n             path2[0] = uniswap.WETH();\n             path2[1] = address(theTokenk);\n\n          \n              uint[] memory minOuts2 = uniswap.getAmountsOut(address(this).balance, path2); \n            \n              uniswap.swapETHForExactTokens.value(address(this).balance)(\n              minOuts2[1], \n              path2, \n              address(this), \n              now\n            );\n         \n          \n        }\n\n\n        uint totalDebt =  _amount.add(_fee);\n        transferFundsBackToPoolInternal(_reserve, totalDebt);\n      // theTokenk.transfer(addressesProvider.getLendingPool(),totalDebt);\n    }\n\n    \n    \n    function withdrawETHAndTokens() external onlyOwner {\n        \n         msg.sender.send(address(this).balance);\n         ERC20 daiToken = ERC20(tradedtokenAdress);\n         uint256 currentTokenBalance = daiToken.balanceOf(address(this));\n        daiToken.transfer(msg.sender, currentTokenBalance);\n        \n    }\n\n       function withdrawETHAndAnyTokens(address addresse) external onlyOwner {\n        \n         msg.sender.send(address(this).balance);\n         ERC20 daiToken = ERC20(addresse);\n         uint256 currentTokenBalance = daiToken.balanceOf(address(this));\n        daiToken.transfer(msg.sender, currentTokenBalance);\n        \n    }\n\n}\n\n ",
  "sourcePath": "/home/ethuser/sandbox/private/eth/my-flashloan/yfrbArbBot/contracts/Flashloan.sol",
  "compiler": {
    "name": "solc",
    "version": "0.6.6+commit.6c089d02.Emscripten.clang"
  },
  "schemaVersion": "3.2.4",
  "updatedAt": "2020-10-20T14:02:55.968Z",
  "networkType": "ethereum",
  "devdoc": {
    "methods": {
      "owner()": {
        "details": "Returns the address of the current owner."
      },
      "renounceOwnership()": {
        "details": "Leaves the contract without owner. It will not be possible to call `onlyOwner` functions anymore. Can only be called by the current owner.     * NOTE: Renouncing ownership will leave the contract without an owner, thereby removing any functionality that is only available to the owner."
      },
      "transferOwnership(address)": {
        "details": "Transfers ownership of the contract to a new account (`newOwner`). Can only be called by the current owner."
      },
      "withdraw(address)": {
        "details": "Withdraw asset.",
        "params": {
          "_assetAddress": "Asset to be withdrawn."
        }
      }
    }
  },
  "userdoc": {
    "methods": {}
  }
}