{
  "contractName": "Flashloan",
  "abi": [
    {
      "inputs": [
        {
          "internalType": "address",
          "name": "addressProvider",
          "type": "address"
        },
        {
          "internalType": "address",
          "name": "kyberAddress",
          "type": "address"
        },
        {
          "internalType": "address",
          "name": "uniswapAddress",
          "type": "address"
        },
        {
          "internalType": "address",
          "name": "projectTokenAddress",
          "type": "address"
        },
        {
          "internalType": "address",
          "name": "adminAddress",
          "type": "address"
        }
      ],
      "stateMutability": "nonpayable",
      "type": "constructor"
    },
    {
      "anonymous": false,
      "inputs": [
        {
          "indexed": true,
          "internalType": "address",
          "name": "_from",
          "type": "address"
        },
        {
          "indexed": true,
          "internalType": "address",
          "name": "_assetAddress",
          "type": "address"
        },
        {
          "indexed": false,
          "internalType": "uint256",
          "name": "amount",
          "type": "uint256"
        }
      ],
      "name": "LogWithdraw",
      "type": "event"
    },
    {
      "anonymous": false,
      "inputs": [
        {
          "indexed": true,
          "internalType": "address",
          "name": "previousOwner",
          "type": "address"
        },
        {
          "indexed": true,
          "internalType": "address",
          "name": "newOwner",
          "type": "address"
        }
      ],
      "name": "OwnershipTransferred",
      "type": "event"
    },
    {
      "inputs": [],
      "name": "addressesProvider",
      "outputs": [
        {
          "internalType": "contract ILendingPoolAddressesProvider",
          "name": "",
          "type": "address"
        }
      ],
      "stateMutability": "view",
      "type": "function"
    },
    {
      "inputs": [],
      "name": "admin",
      "outputs": [
        {
          "internalType": "address",
          "name": "",
          "type": "address"
        }
      ],
      "stateMutability": "view",
      "type": "function"
    },
    {
      "inputs": [],
      "name": "daiAddress",
      "outputs": [
        {
          "internalType": "address",
          "name": "",
          "type": "address"
        }
      ],
      "stateMutability": "view",
      "type": "function"
    },
    {
      "inputs": [],
      "name": "owner",
      "outputs": [
        {
          "internalType": "address",
          "name": "",
          "type": "address"
        }
      ],
      "stateMutability": "view",
      "type": "function"
    },
    {
      "inputs": [],
      "name": "projectToken",
      "outputs": [
        {
          "internalType": "contract IERC20",
          "name": "",
          "type": "address"
        }
      ],
      "stateMutability": "view",
      "type": "function"
    },
    {
      "inputs": [],
      "name": "renounceOwnership",
      "outputs": [],
      "stateMutability": "nonpayable",
      "type": "function"
    },
    {
      "inputs": [
        {
          "internalType": "address",
          "name": "newOwner",
          "type": "address"
        }
      ],
      "name": "transferOwnership",
      "outputs": [],
      "stateMutability": "nonpayable",
      "type": "function"
    },
    {
      "inputs": [
        {
          "internalType": "address",
          "name": "_assetAddress",
          "type": "address"
        }
      ],
      "name": "withdraw",
      "outputs": [],
      "stateMutability": "nonpayable",
      "type": "function"
    },
    {
      "stateMutability": "payable",
      "type": "receive"
    },
    {
      "inputs": [],
      "name": "getOwnerAddress",
      "outputs": [
        {
          "internalType": "address",
          "name": "owner",
          "type": "address"
        }
      ],
      "stateMutability": "view",
      "type": "function"
    },
    {
      "inputs": [
        {
          "internalType": "address",
          "name": "asset",
          "type": "address"
        }
      ],
      "name": "getDaiBalance",
      "outputs": [
        {
          "internalType": "uint256",
          "name": "balance",
          "type": "uint256"
        }
      ],
      "stateMutability": "view",
      "type": "function"
    },
    {
      "inputs": [],
      "name": "getEthBalance",
      "outputs": [
        {
          "internalType": "uint256",
          "name": "balance",
          "type": "uint256"
        }
      ],
      "stateMutability": "view",
      "type": "function"
    },
    {
      "inputs": [
        {
          "internalType": "address",
          "name": "asset",
          "type": "address"
        },
        {
          "internalType": "uint256",
          "name": "amou",
          "type": "uint256"
        }
      ],
      "name": "flashloan",
      "outputs": [],
      "stateMutability": "nonpayable",
      "type": "function"
    },
    {
      "inputs": [
        {
          "internalType": "address",
          "name": "asset",
          "type": "address"
        },
        {
          "internalType": "uint256",
          "name": "amou",
          "type": "uint256"
        }
      ],
      "name": "flashloan2",
      "outputs": [],
      "stateMutability": "nonpayable",
      "type": "function"
    },
    {
      "inputs": [
        {
          "internalType": "address",
          "name": "_reserve",
          "type": "address"
        },
        {
          "internalType": "uint256",
          "name": "_amount",
          "type": "uint256"
        },
        {
          "internalType": "uint256",
          "name": "_fee",
          "type": "uint256"
        },
        {
          "internalType": "bytes",
          "name": "_params",
          "type": "bytes"
        }
      ],
      "name": "executeOperation",
      "outputs": [],
      "stateMutability": "nonpayable",
      "type": "function"
    },
    {
      "inputs": [
        {
          "internalType": "address",
          "name": "asset",
          "type": "address"
        }
      ],
      "name": "withdrawETHAndTokens",
      "outputs": [],
      "stateMutability": "nonpayable",
      "type": "function"
    }
  ],
  "bytecode": "0x60806040523480156200001157600080fd5b5060405162003040380380620030408339818101604052810190620000379190620002bb565b8460006200004a6200029c60201b60201c565b9050806000806101000a81548173ffffffffffffffffffffffffffffffffffffffff021916908373ffffffffffffffffffffffffffffffffffffffff1602179055508073ffffffffffffffffffffffffffffffffffffffff16600073ffffffffffffffffffffffffffffffffffffffff167f8be0079c531659141344cd1fd0a4f28419497f9722a3daafe3b4186f6b6457e060405160405180910390a35080600160006101000a81548173ffffffffffffffffffffffffffffffffffffffff021916908373ffffffffffffffffffffffffffffffffffffffff1602179055505083600260006101000a81548173ffffffffffffffffffffffffffffffffffffffff021916908373ffffffffffffffffffffffffffffffffffffffff16021790555082600360006101000a81548173ffffffffffffffffffffffffffffffffffffffff021916908373ffffffffffffffffffffffffffffffffffffffff160217905550600760009054906101000a900473ffffffffffffffffffffffffffffffffffffffff16600460006101000a81548173ffffffffffffffffffffffffffffffffffffffff021916908373ffffffffffffffffffffffffffffffffffffffff16021790555081600560006101000a81548173ffffffffffffffffffffffffffffffffffffffff021916908373ffffffffffffffffffffffffffffffffffffffff16021790555080600660006101000a81548173ffffffffffffffffffffffffffffffffffffffff021916908373ffffffffffffffffffffffffffffffffffffffff16021790555050505050506200038b565b600033905090565b600081519050620002b58162000371565b92915050565b600080600080600060a08688031215620002d457600080fd5b6000620002e488828901620002a4565b9550506020620002f788828901620002a4565b94505060406200030a88828901620002a4565b93505060606200031d88828901620002a4565b92505060806200033088828901620002a4565b9150509295509295909350565b60006200034a8262000351565b9050919050565b600073ffffffffffffffffffffffffffffffffffffffff82169050919050565b6200037c816200033d565b81146200038857600080fd5b50565b612ca5806200039b6000396000f3fe6080604052600436106100ec5760003560e01c8063715018a61161008a578063c72c4d1011610059578063c72c4d10146102c7578063ee872558146102f2578063f2fde38b1461031b578063f851a44014610344576100f3565b8063715018a61461021f5780637e4287be146102365780638da5cb5b146102735780638e5f5f571461029e576100f3565b806351cff8d9116100c657806351cff8d9146101795780635665f1ae146101a2578063683a31d2146101cb57806370ed0ada146101f4576100f3565b80630c4f65bd146100f85780632c387275146101235780634b60ce771461014e576100f3565b366100f357005b600080fd5b34801561010457600080fd5b5061010d61036f565b60405161011a919061268e565b60405180910390f35b34801561012f57600080fd5b50610138610399565b604051610145919061268e565b60405180910390f35b34801561015a57600080fd5b506101636103bf565b60405161017091906127f9565b60405180910390f35b34801561018557600080fd5b506101a0600480360381019061019b91906120f4565b6103e5565b005b3480156101ae57600080fd5b506101c960048036038101906101c491906120f4565b61063d565b005b3480156101d757600080fd5b506101f260048036038101906101ed919061216f565b61082e565b005b34801561020057600080fd5b50610209610980565b6040516102169190612911565b60405180910390f35b34801561022b57600080fd5b5061023461098d565b005b34801561024257600080fd5b5061025d600480360381019061025891906120f4565b610ae2565b60405161026a9190612911565b60405180910390f35b34801561027f57600080fd5b50610288610b7f565b604051610295919061268e565b60405180910390f35b3480156102aa57600080fd5b506102c560048036038101906102c0919061216f565b610ba8565b005b3480156102d357600080fd5b506102dc610d02565b6040516102e99190612814565b60405180910390f35b3480156102fe57600080fd5b50610319600480360381019061031491906121ab565b610d28565b005b34801561032757600080fd5b50610342600480360381019061033d91906120f4565b6118e1565b005b34801561035057600080fd5b50610359611aa5565b604051610366919061268e565b60405180910390f35b6000600660009054906101000a900473ffffffffffffffffffffffffffffffffffffffff16905090565b600760009054906101000a900473ffffffffffffffffffffffffffffffffffffffff1681565b600560009054906101000a900473ffffffffffffffffffffffffffffffffffffffff1681565b6103ed611acb565b73ffffffffffffffffffffffffffffffffffffffff166000809054906101000a900473ffffffffffffffffffffffffffffffffffffffff1673ffffffffffffffffffffffffffffffffffffffff161461047b576040517f08c379a0000000000000000000000000000000000000000000000000000000008152600401610472906128b1565b60405180910390fd5b60008073ffffffffffffffffffffffffffffffffffffffff168273ffffffffffffffffffffffffffffffffffffffff16141561051d5760003090508073ffffffffffffffffffffffffffffffffffffffff163191503373ffffffffffffffffffffffffffffffffffffffff166108fc839081150290604051600060405180830381858888f19350505050158015610516573d6000803e3d6000fd5b50506105d4565b8173ffffffffffffffffffffffffffffffffffffffff166370a08231306040518263ffffffff1660e01b8152600401610556919061268e565b60206040518083038186803b15801561056e57600080fd5b505afa158015610582573d6000803e3d6000fd5b505050506040513d601f19601f820116820180604052508101906105a69190612295565b90506105d333828473ffffffffffffffffffffffffffffffffffffffff16611ad39092919063ffffffff16565b5b8173ffffffffffffffffffffffffffffffffffffffff163373ffffffffffffffffffffffffffffffffffffffff167f9207361cc2a04b9c7a06691df1eb87c6a63957ae88bf01d0d18c81e3d1272099836040516106319190612911565b60405180910390a35050565b610645611acb565b73ffffffffffffffffffffffffffffffffffffffff166000809054906101000a900473ffffffffffffffffffffffffffffffffffffffff1673ffffffffffffffffffffffffffffffffffffffff16146106d3576040517f08c379a00000000000000000000000000000000000000000000000000000000081526004016106ca906128b1565b60405180910390fd5b3373ffffffffffffffffffffffffffffffffffffffff166108fc479081150290604051600060405180830381858888f1935050505050600081905060008173ffffffffffffffffffffffffffffffffffffffff166370a08231306040518263ffffffff1660e01b815260040161074991906126a9565b60206040518083038186803b15801561076157600080fd5b505afa158015610775573d6000803e3d6000fd5b505050506040513d601f19601f820116820180604052508101906107999190612295565b90508173ffffffffffffffffffffffffffffffffffffffff1663a9059cbb33836040518363ffffffff1660e01b81526004016107d6929190612710565b602060405180830381600087803b1580156107f057600080fd5b505af1158015610804573d6000803e3d6000fd5b505050506040513d601f19601f82011682018060405250810190610828919061226c565b50505050565b6000670de0b6b3a764000082029050606060405180602001604052806000815250905060001515600760149054906101000a905050506000600160009054906101000a900473ffffffffffffffffffffffffffffffffffffffff1673ffffffffffffffffffffffffffffffffffffffff16630261bf8b6040518163ffffffff1660e01b815260040160206040518083038186803b1580156108ce57600080fd5b505afa1580156108e2573d6000803e3d6000fd5b505050506040513d601f19601f82011682018060405250810190610906919061211d565b90508073ffffffffffffffffffffffffffffffffffffffff16635cffe9de308786866040518563ffffffff1660e01b815260040161094794939291906126c4565b600060405180830381600087803b15801561096157600080fd5b505af1158015610975573d6000803e3d6000fd5b505050505050505050565b6000804790508091505090565b610995611acb565b73ffffffffffffffffffffffffffffffffffffffff166000809054906101000a900473ffffffffffffffffffffffffffffffffffffffff1673ffffffffffffffffffffffffffffffffffffffff1614610a23576040517f08c379a0000000000000000000000000000000000000000000000000000000008152600401610a1a906128b1565b60405180910390fd5b600073ffffffffffffffffffffffffffffffffffffffff166000809054906101000a900473ffffffffffffffffffffffffffffffffffffffff1673ffffffffffffffffffffffffffffffffffffffff167f8be0079c531659141344cd1fd0a4f28419497f9722a3daafe3b4186f6b6457e060405160405180910390a360008060006101000a81548173ffffffffffffffffffffffffffffffffffffffff021916908373ffffffffffffffffffffffffffffffffffffffff160217905550565b60008082905060008173ffffffffffffffffffffffffffffffffffffffff166370a08231306040518263ffffffff1660e01b8152600401610b2391906126a9565b60206040518083038186803b158015610b3b57600080fd5b505afa158015610b4f573d6000803e3d6000fd5b505050506040513d601f19601f82011682018060405250810190610b739190612295565b90508092505050919050565b60008060009054906101000a900473ffffffffffffffffffffffffffffffffffffffff16905090565b6000670de0b6b3a76400008202905060606040518060200160405280600081525090506001600760146101000a81548160ff0219169083151502179055506000600160009054906101000a900473ffffffffffffffffffffffffffffffffffffffff1673ffffffffffffffffffffffffffffffffffffffff16630261bf8b6040518163ffffffff1660e01b815260040160206040518083038186803b158015610c5057600080fd5b505afa158015610c64573d6000803e3d6000fd5b505050506040513d601f19601f82011682018060405250810190610c88919061211d565b90508073ffffffffffffffffffffffffffffffffffffffff16635cffe9de308786866040518563ffffffff1660e01b8152600401610cc994939291906126c4565b600060405180830381600087803b158015610ce357600080fd5b505af1158015610cf7573d6000803e3d6000fd5b505050505050505050565b600160009054906101000a900473ffffffffffffffffffffffffffffffffffffffff1681565b600085905060008173ffffffffffffffffffffffffffffffffffffffff166370a08231306040518263ffffffff1660e01b8152600401610d6891906126a9565b60206040518083038186803b158015610d8057600080fd5b505afa158015610d94573d6000803e3d6000fd5b505050506040513d601f19601f82011682018060405250810190610db89190612295565b9050600760149054906101000a900460ff161561138a578173ffffffffffffffffffffffffffffffffffffffff1663095ea7b3600360009054906101000a900473ffffffffffffffffffffffffffffffffffffffff16836040518363ffffffff1660e01b8152600401610e2c929190612739565b602060405180830381600087803b158015610e4657600080fd5b505af1158015610e5a573d6000803e3d6000fd5b505050506040513d601f19601f82011682018060405250810190610e7e919061226c565b506060600267ffffffffffffffff81118015610e9957600080fd5b50604051908082528060200260200182016040528015610ec85781602001602082028036833780820191505090505b5090508281600081518110610ed957fe5b602002602001019073ffffffffffffffffffffffffffffffffffffffff16908173ffffffffffffffffffffffffffffffffffffffff1681525050600360009054906101000a900473ffffffffffffffffffffffffffffffffffffffff1673ffffffffffffffffffffffffffffffffffffffff1663ad5c46486040518163ffffffff1660e01b815260040160206040518083038186803b158015610f7b57600080fd5b505afa158015610f8f573d6000803e3d6000fd5b505050506040513d601f19601f82011682018060405250810190610fb3919061211d565b81600181518110610fc057fe5b602002602001019073ffffffffffffffffffffffffffffffffffffffff16908173ffffffffffffffffffffffffffffffffffffffff16815250506060600360009054906101000a900473ffffffffffffffffffffffffffffffffffffffff1673ffffffffffffffffffffffffffffffffffffffff1663d06ca61f84846040518363ffffffff1660e01b815260040161105992919061292c565b60006040518083038186803b15801561107157600080fd5b505afa158015611085573d6000803e3d6000fd5b505050506040513d6000823e3d601f19601f820116820180604052508101906110ae919061222b565b9050600360009054906101000a900473ffffffffffffffffffffffffffffffffffffffff1673ffffffffffffffffffffffffffffffffffffffff166318cbafe584836001815181106110fc57fe5b60200260200101518530426040518663ffffffff1660e01b81526004016111279594939291906129a8565b600060405180830381600087803b15801561114157600080fd5b505af1158015611155573d6000803e3d6000fd5b505050506040513d6000823e3d601f19601f8201168201806040525081019061117e919061222b565b506000600260009054906101000a900473ffffffffffffffffffffffffffffffffffffffff1673ffffffffffffffffffffffffffffffffffffffff1663809a9e55600360009054906101000a900473ffffffffffffffffffffffffffffffffffffffff1673ffffffffffffffffffffffffffffffffffffffff1663ad5c46486040518163ffffffff1660e01b815260040160206040518083038186803b15801561122757600080fd5b505afa15801561123b573d6000803e3d6000fd5b505050506040513d601f19601f8201168201806040525081019061125f919061211d565b87476040518463ffffffff1660e01b815260040161127f93929190612762565b604080518083038186803b15801561129657600080fd5b505afa1580156112aa573d6000803e3d6000fd5b505050506040513d601f19601f820116820180604052508101906112ce91906122be565b509050600260009054906101000a900473ffffffffffffffffffffffffffffffffffffffff1673ffffffffffffffffffffffffffffffffffffffff16637a2a04564787846040518463ffffffff1660e01b815260040161132f929190612799565b6020604051808303818588803b15801561134857600080fd5b505af115801561135c573d6000803e3d6000fd5b50505050506040513d601f19601f820116820180604052508101906113819190612295565b505050506118b6565b8173ffffffffffffffffffffffffffffffffffffffff1663095ea7b3600260009054906101000a900473ffffffffffffffffffffffffffffffffffffffff16886040518363ffffffff1660e01b81526004016113e7929190612739565b602060405180830381600087803b15801561140157600080fd5b505af1158015611415573d6000803e3d6000fd5b505050506040513d601f19601f82011682018060405250810190611439919061226c565b506000600260009054906101000a900473ffffffffffffffffffffffffffffffffffffffff1673ffffffffffffffffffffffffffffffffffffffff1663809a9e558473eeeeeeeeeeeeeeeeeeeeeeeeeeeeeeeeeeeeeeee8a6040518463ffffffff1660e01b81526004016114af93929190612762565b604080518083038186803b1580156114c657600080fd5b505afa1580156114da573d6000803e3d6000fd5b505050506040513d601f19601f820116820180604052508101906114fe91906122be565b509050600260009054906101000a900473ffffffffffffffffffffffffffffffffffffffff1673ffffffffffffffffffffffffffffffffffffffff16633bba21dc8489846040518463ffffffff1660e01b8152600401611560939291906127c2565b602060405180830381600087803b15801561157a57600080fd5b505af115801561158e573d6000803e3d6000fd5b505050506040513d601f19601f820116820180604052508101906115b29190612295565b506060600267ffffffffffffffff811180156115cd57600080fd5b506040519080825280602002602001820160405280156115fc5781602001602082028036833780820191505090505b509050600360009054906101000a900473ffffffffffffffffffffffffffffffffffffffff1673ffffffffffffffffffffffffffffffffffffffff1663ad5c46486040518163ffffffff1660e01b815260040160206040518083038186803b15801561166757600080fd5b505afa15801561167b573d6000803e3d6000fd5b505050506040513d601f19601f8201168201806040525081019061169f919061211d565b816000815181106116ac57fe5b602002602001019073ffffffffffffffffffffffffffffffffffffffff16908173ffffffffffffffffffffffffffffffffffffffff168152505083816001815181106116f457fe5b602002602001019073ffffffffffffffffffffffffffffffffffffffff16908173ffffffffffffffffffffffffffffffffffffffff16815250506060600360009054906101000a900473ffffffffffffffffffffffffffffffffffffffff1673ffffffffffffffffffffffffffffffffffffffff1663d06ca61f47846040518363ffffffff1660e01b815260040161178d92919061292c565b60006040518083038186803b1580156117a557600080fd5b505afa1580156117b9573d6000803e3d6000fd5b505050506040513d6000823e3d601f19601f820116820180604052508101906117e2919061222b565b9050600360009054906101000a900473ffffffffffffffffffffffffffffffffffffffff1673ffffffffffffffffffffffffffffffffffffffff1663fb3bdb41478360018151811061183057fe5b60200260200101518530426040518663ffffffff1660e01b815260040161185a949392919061295c565b6000604051808303818588803b15801561187357600080fd5b505af1158015611887573d6000803e3d6000fd5b50505050506040513d6000823e3d601f19601f820116820180604052508101906118b1919061222b565b505050505b60006118cb8688611b5990919063ffffffff16565b90506118d78882611bae565b5050505050505050565b6118e9611acb565b73ffffffffffffffffffffffffffffffffffffffff166000809054906101000a900473ffffffffffffffffffffffffffffffffffffffff1673ffffffffffffffffffffffffffffffffffffffff1614611977576040517f08c379a000000000000000000000000000000000000000000000000000000000815260040161196e906128b1565b60405180910390fd5b600073ffffffffffffffffffffffffffffffffffffffff168173ffffffffffffffffffffffffffffffffffffffff1614156119e7576040517f08c379a00000000000000000000000000000000000000000000000000000000081526004016119de90612851565b60405180910390fd5b8073ffffffffffffffffffffffffffffffffffffffff166000809054906101000a900473ffffffffffffffffffffffffffffffffffffffff1673ffffffffffffffffffffffffffffffffffffffff167f8be0079c531659141344cd1fd0a4f28419497f9722a3daafe3b4186f6b6457e060405160405180910390a3806000806101000a81548173ffffffffffffffffffffffffffffffffffffffff021916908373ffffffffffffffffffffffffffffffffffffffff16021790555050565b600660009054906101000a900473ffffffffffffffffffffffffffffffffffffffff1681565b600033905090565b611b548363a9059cbb60e01b8484604051602401611af2929190612739565b604051602081830303815290604052907bffffffffffffffffffffffffffffffffffffffffffffffffffffffff19166020820180517bffffffffffffffffffffffffffffffffffffffffffffffffffffffff8381831617835250505050611c62565b505050565b600080828401905083811015611ba4576040517f08c379a0000000000000000000000000000000000000000000000000000000008152600401611b9b90612871565b60405180910390fd5b8091505092915050565b6000600160009054906101000a900473ffffffffffffffffffffffffffffffffffffffff1673ffffffffffffffffffffffffffffffffffffffff1663ed6ff7606040518163ffffffff1660e01b815260040160206040518083038186803b158015611c1857600080fd5b505afa158015611c2c573d6000803e3d6000fd5b505050506040513d601f19601f82011682018060405250810190611c509190612146565b9050611c5d818484611d29565b505050565b6060611cc4826040518060400160405280602081526020017f5361666545524332303a206c6f772d6c6576656c2063616c6c206661696c65648152508573ffffffffffffffffffffffffffffffffffffffff16611e5b9092919063ffffffff16565b9050600081511115611d245780806020019051810190611ce4919061226c565b611d23576040517f08c379a0000000000000000000000000000000000000000000000000000000008152600401611d1a906128f1565b60405180910390fd5b5b505050565b73eeeeeeeeeeeeeeeeeeeeeeeeeeeeeeeeeeeeeeee73ffffffffffffffffffffffffffffffffffffffff168273ffffffffffffffffffffffffffffffffffffffff161415611e2a5760008373ffffffffffffffffffffffffffffffffffffffff1682604051611d9790612679565b60006040518083038185875af1925050503d8060008114611dd4576040519150601f19603f3d011682016040523d82523d6000602084013e611dd9565b606091505b505090506001151581151514611e24576040517f08c379a0000000000000000000000000000000000000000000000000000000008152600401611e1b90612891565b60405180910390fd5b50611e56565b611e5583828473ffffffffffffffffffffffffffffffffffffffff16611ad39092919063ffffffff16565b5b505050565b6060611e6a8484600085611e73565b90509392505050565b6060611e7e85611f96565b611ebd576040517f08c379a0000000000000000000000000000000000000000000000000000000008152600401611eb4906128d1565b60405180910390fd5b600060608673ffffffffffffffffffffffffffffffffffffffff168587604051611ee79190612662565b60006040518083038185875af1925050503d8060008114611f24576040519150601f19603f3d011682016040523d82523d6000602084013e611f29565b606091505b50915091508115611f3e578092505050611f8e565b600081511115611f515780518082602001fd5b836040517f08c379a0000000000000000000000000000000000000000000000000000000008152600401611f85919061282f565b60405180910390fd5b949350505050565b600080823b905060008111915050919050565b600081359050611fb881612c13565b92915050565b600081519050611fcd81612c13565b92915050565b600081519050611fe281612c2a565b92915050565b600082601f830112611ff957600080fd5b815161200c61200782612a2f565b612a02565b9150818183526020840193506020810190508385602084028201111561203157600080fd5b60005b83811015612061578161204788826120df565b845260208401935060208301925050600181019050612034565b5050505092915050565b60008151905061207a81612c41565b92915050565b60008083601f84011261209257600080fd5b8235905067ffffffffffffffff8111156120ab57600080fd5b6020830191508360018202830111156120c357600080fd5b9250929050565b6000813590506120d981612c58565b92915050565b6000815190506120ee81612c58565b92915050565b60006020828403121561210657600080fd5b600061211484828501611fa9565b91505092915050565b60006020828403121561212f57600080fd5b600061213d84828501611fbe565b91505092915050565b60006020828403121561215857600080fd5b600061216684828501611fd3565b91505092915050565b6000806040838503121561218257600080fd5b600061219085828601611fa9565b92505060206121a1858286016120ca565b9150509250929050565b6000806000806000608086880312156121c357600080fd5b60006121d188828901611fa9565b95505060206121e2888289016120ca565b94505060406121f3888289016120ca565b935050606086013567ffffffffffffffff81111561221057600080fd5b61221c88828901612080565b92509250509295509295909350565b60006020828403121561223d57600080fd5b600082015167ffffffffffffffff81111561225757600080fd5b61226384828501611fe8565b91505092915050565b60006020828403121561227e57600080fd5b600061228c8482850161206b565b91505092915050565b6000602082840312156122a757600080fd5b60006122b5848285016120df565b91505092915050565b600080604083850312156122d157600080fd5b60006122df858286016120df565b92505060206122f0858286016120df565b9150509250929050565b60006123068383612321565b60208301905092915050565b61231b81612b2d565b82525050565b61232a81612ad3565b82525050565b61233981612ad3565b82525050565b600061234a82612a67565b6123548185612a95565b935061235f83612a57565b8060005b8381101561239057815161237788826122fa565b975061238283612a88565b925050600181019050612363565b5085935050505092915050565b60006123a882612a72565b6123b28185612aa6565b93506123c2818560208601612bcf565b6123cb81612c02565b840191505092915050565b60006123e182612a72565b6123eb8185612ab7565b93506123fb818560208601612bcf565b80840191505092915050565b61241081612b3f565b82525050565b61241f81612b63565b82525050565b61242e81612b87565b82525050565b600061243f82612a7d565b6124498185612ac2565b9350612459818560208601612bcf565b61246281612c02565b840191505092915050565b600061247a602683612ac2565b91507f4f776e61626c653a206e6577206f776e657220697320746865207a65726f206160008301527f64647265737300000000000000000000000000000000000000000000000000006020830152604082019050919050565b60006124e0601b83612ac2565b91507f536166654d6174683a206164646974696f6e206f766572666c6f7700000000006000830152602082019050919050565b6000612520601583612ac2565b91507f436f756c646e2774207472616e736665722045544800000000000000000000006000830152602082019050919050565b6000612560602083612ac2565b91507f4f776e61626c653a2063616c6c6572206973206e6f7420746865206f776e65726000830152602082019050919050565b60006125a0600083612ab7565b9150600082019050919050565b60006125ba601d83612ac2565b91507f416464726573733a2063616c6c20746f206e6f6e2d636f6e74726163740000006000830152602082019050919050565b60006125fa602a83612ac2565b91507f5361666545524332303a204552433230206f7065726174696f6e20646964206e60008301527f6f742073756363656564000000000000000000000000000000000000000000006020830152604082019050919050565b61265c81612b23565b82525050565b600061266e82846123d6565b915081905092915050565b600061268482612593565b9150819050919050565b60006020820190506126a36000830184612330565b92915050565b60006020820190506126be6000830184612312565b92915050565b60006080820190506126d96000830187612312565b6126e66020830186612330565b6126f36040830185612653565b8181036060830152612705818461239d565b905095945050505050565b60006040820190506127256000830185612312565b6127326020830184612653565b9392505050565b600060408201905061274e6000830185612330565b61275b6020830184612653565b9392505050565b60006060820190506127776000830186612407565b6127846020830185612407565b6127916040830184612653565b949350505050565b60006040820190506127ae6000830185612407565b6127bb6020830184612653565b9392505050565b60006060820190506127d76000830186612407565b6127e46020830185612653565b6127f16040830184612653565b949350505050565b600060208201905061280e6000830184612416565b92915050565b60006020820190506128296000830184612425565b92915050565b600060208201905081810360008301526128498184612434565b905092915050565b6000602082019050818103600083015261286a8161246d565b9050919050565b6000602082019050818103600083015261288a816124d3565b9050919050565b600060208201905081810360008301526128aa81612513565b9050919050565b600060208201905081810360008301526128ca81612553565b9050919050565b600060208201905081810360008301526128ea816125ad565b9050919050565b6000602082019050818103600083015261290a816125ed565b9050919050565b60006020820190506129266000830184612653565b92915050565b60006040820190506129416000830185612653565b8181036020830152612953818461233f565b90509392505050565b60006080820190506129716000830187612653565b8181036020830152612983818661233f565b90506129926040830185612312565b61299f6060830184612653565b95945050505050565b600060a0820190506129bd6000830188612653565b6129ca6020830187612653565b81810360408301526129dc818661233f565b90506129eb6060830185612312565b6129f86080830184612653565b9695505050505050565b6000604051905081810181811067ffffffffffffffff82111715612a2557600080fd5b8060405250919050565b600067ffffffffffffffff821115612a4657600080fd5b602082029050602081019050919050565b6000819050602082019050919050565b600081519050919050565b600081519050919050565b600081519050919050565b6000602082019050919050565b600082825260208201905092915050565b600082825260208201905092915050565b600081905092915050565b600082825260208201905092915050565b6000612ade82612b03565b9050919050565b6000612af082612b03565b9050919050565b60008115159050919050565b600073ffffffffffffffffffffffffffffffffffffffff82169050919050565b6000819050919050565b6000612b3882612bab565b9050919050565b6000612b4a82612b51565b9050919050565b6000612b5c82612b03565b9050919050565b6000612b6e82612b75565b9050919050565b6000612b8082612b03565b9050919050565b6000612b9282612b99565b9050919050565b6000612ba482612b03565b9050919050565b6000612bb682612bbd565b9050919050565b6000612bc882612b03565b9050919050565b60005b83811015612bed578082015181840152602081019050612bd2565b83811115612bfc576000848401525b50505050565b6000601f19601f8301169050919050565b612c1c81612ad3565b8114612c2757600080fd5b50565b612c3381612ae5565b8114612c3e57600080fd5b50565b612c4a81612af7565b8114612c5557600080fd5b50565b612c6181612b23565b8114612c6c57600080fd5b5056fea2646970667358221220451e79760e08ac26b78e0623dd13a4a7808ae1b51cb812b759b7c62263a5d39564736f6c63430006060033",
  "immutableReferences": {},
  "source": "pragma solidity ^0.6.6;\npragma experimental ABIEncoderV2;\n\nimport \"./aave/FlashLoanReceiverBase.sol\";\nimport \"./aave/ILendingPoolAddressesProvider.sol\";\nimport \"./aave/ILendingPool.sol\";\nimport './IUniswapV2Router02.sol';\n\ninterface IKyberNetworkProxy {\n    function maxGasPrice() external view returns(uint);\n\n    function getUserCapInWei(address user) external view returns(uint);\n\n    function getUserCapInTokenWei(address user, ERC20 token) external view returns(uint);\n\n    function enabled() external view returns(bool);\n\n    function info(bytes32 id) external view returns(uint);\n\n    function getExpectedRate(ERC20 src, ERC20 dest, uint srcQty) external view returns(uint expectedRate, uint slippageRate);\n\n    function tradeWithHint(ERC20 src, uint srcAmount, ERC20 dest, address destAddress, uint maxDestAmount, uint minConversionRate, address walletId, bytes calldata hint) external payable returns(uint);\n\n    function swapEtherToToken(ERC20 token, uint minRate) external payable returns(uint);\n\n    function swapTokenToEther(ERC20 token, uint tokenQty, uint minRate) external returns(uint);\n}\n\n\n\n\ncontract Flashloan is FlashLoanReceiverBase {\n\n\n     ERC20 constant internal ETH_TOKEN_ADDRESS = ERC20(0x00eeeeeeeeeeeeeeeeeeeeeeeeeeeeeeeeeeeeeeee);\n \n     IKyberNetworkProxy kyber;\n     IUniswapV2Router02 uniswap;\n     IERC20 dai;\n     address constant KYBER_ETH_ADDRESS = 0xEeeeeEeeeEeEeeEeEeEeeEEEeeeeEeeeeeeeEEeE;\n     IERC20 public projectToken;\n     address public admin;\n     address public daiAddress;\n    \n      constructor(\n        address addressProvider,\n        address kyberAddress,\n        address uniswapAddress,\n        address projectTokenAddress,\n        address adminAddress\n    ) FlashLoanReceiverBase(addressProvider)  public {\n        \n      kyber = IKyberNetworkProxy(kyberAddress);\n      uniswap = IUniswapV2Router02(uniswapAddress);\n      dai = ERC20(daiAddress);\n      projectToken = IERC20(projectTokenAddress);\n      admin = adminAddress;\n    \n    }\n        \n    bool arbdir;\n\n\n    function getOwnerAddress() public view returns(address owner){\n\n        return admin;\n    }\n\n    function getDaiBalance(address asset) public view returns(uint256 balance){\n\n       ERC20 theTokenk = ERC20(asset);\n       uint256 balanceDai = theTokenk.balanceOf(address(this));\n\n        return balanceDai;\n    }\n\n    function getEthBalance() public view returns(uint256 balance){\n        uint256 ethbalance = address(this).balance;\n\n        return ethbalance;\n    }\n\n\n   \n\n    function flashloan(address asset, uint amou) public {\n         \n     // require(projectToken.balanceOf(msg.sender) >= 50 * 1e18, 'insufficient balance');\n       // address receiver = address(this); // Can also be a separate contract\n      \n        uint256 amount = amou * 1e18;\n        \n        bytes memory params = \"\";\n        \n        arbdir = true; \n   \n        ILendingPool lendingPool = ILendingPool(addressesProvider.getLendingPool());\n        \n        lendingPool.flashLoan(address(this), asset, amount, params);\n\n    }\n\n    function flashloan2(address asset, uint amou) public {\n\n    //  require(projectToken.balanceOf(msg.sender) >= 50 * 1e18, 'insufficient balance');\n       // address receiver = address(this); // Can also be a separate contract\n      \n        uint256 amount = amou * 1e18;\n        \n         bytes memory params = \"\";\n\n         arbdir == false;\n         \n        ILendingPool lendingPool = ILendingPool(addressesProvider.getLendingPool());\n        \n        lendingPool.flashLoan(address(this), asset, amount, params);\n \n    }\n\n    function executeOperation(\n        address _reserve,\n        uint256 _amount,\n        uint256 _fee,\n        bytes calldata _params\n    )\n        external\n        override\n    {\n       \n\n   //  require(_amount => getBalanceInternal(address(this), _reserve), \"Invalid balance, not enough dai to pay the fee, was the flashLoan successful?\");\n\n        ERC20 theTokenk = ERC20(_reserve);\n\n        uint256 balanceDai = theTokenk.balanceOf(address(this));\n\n        if(arbdir) {\n            \n         theTokenk.approve(address(uniswap),balanceDai);\n\n          address[] memory path = new address[](2);\n          path[0] = address(theTokenk); // kovan address(0xFf795577d9AC8bD7D90Ee22b6C1703490b6512FD); \n          path[1] = uniswap.WETH();\n\n    \n          uint[] memory minOuts = uniswap.getAmountsOut(balanceDai, path); \n\n              uniswap.swapExactTokensForETH(\n                balanceDai,\n                minOuts[1], \n                path, \n                address(this), \n                now\n              );\n\n              \n             (uint expectedRate,)  = kyber.getExpectedRate(\n              ERC20(uniswap.WETH()), \n              theTokenk, \n              address(this).balance\n             );\n\n//value:expectedRate\n\n            kyber.swapEtherToToken.value(address(this).balance)(\n            theTokenk, \n            expectedRate\n          );\n     \n        \n\n        } else {\n               \n            theTokenk.approve(address(kyber), _amount); \n         //   theTokenk.approve(address(uniswap),_amount);\n\n            (uint expectedRate,) = kyber.getExpectedRate(\n                theTokenk, \n                ERC20(KYBER_ETH_ADDRESS),\n                _amount\n              );\n          \n             kyber.swapTokenToEther(theTokenk, _amount, expectedRate);\n\n\n             address[] memory path2 = new address[](2);\n             path2[0] = uniswap.WETH();\n             path2[1] = address(theTokenk);\n\n          \n              uint[] memory minOuts2 = uniswap.getAmountsOut(address(this).balance, path2); \n            \n              uniswap.swapETHForExactTokens.value(address(this).balance)(\n              minOuts2[1], \n              path2, \n              address(this), \n              now\n            );\n         \n          \n        }\n\n\n        uint totalDebt =  _amount.add(_fee);\n        transferFundsBackToPoolInternal(_reserve, totalDebt);\n      // theTokenk.transfer(addressesProvider.getLendingPool(),totalDebt);\n    }\n\n    \n    \n    function withdrawETHAndTokens(address asset) external onlyOwner {\n        \n         msg.sender.send(address(this).balance);\n         ERC20 daiToken = ERC20(asset);\n         uint256 currentTokenBalance = daiToken.balanceOf(address(this));\n        daiToken.transfer(msg.sender, currentTokenBalance);\n        \n    }\n\n}\n\n ",
  "sourcePath": "/home/yfrbdev/sandbox/private/eth/my-flashloan/yfrbArbBot/contracts/Flashloan.sol",
  "compiler": {
    "name": "solc",
    "version": "0.6.6+commit.6c089d02.Emscripten.clang"
  },
  "schemaVersion": "3.2.4",
  "updatedAt": "2020-10-06T16:49:50.521Z",
  "networkType": "ethereum",
  "devdoc": {
    "methods": {
      "owner()": {
        "details": "Returns the address of the current owner."
      },
      "renounceOwnership()": {
        "details": "Leaves the contract without owner. It will not be possible to call `onlyOwner` functions anymore. Can only be called by the current owner.     * NOTE: Renouncing ownership will leave the contract without an owner, thereby removing any functionality that is only available to the owner."
      },
      "transferOwnership(address)": {
        "details": "Transfers ownership of the contract to a new account (`newOwner`). Can only be called by the current owner."
      },
      "withdraw(address)": {
        "details": "Withdraw asset.",
        "params": {
          "_assetAddress": "Asset to be withdrawn."
        }
      }
    }
  },
  "userdoc": {
    "methods": {}
  }
}