{
  "contractName": "Flashloan",
  "abi": [
    {
      "inputs": [
        {
          "internalType": "address",
          "name": "addressProvider",
          "type": "address"
        },
        {
          "internalType": "address",
          "name": "kyberAddress",
          "type": "address"
        },
        {
          "internalType": "address",
          "name": "uniswapAddress",
          "type": "address"
        },
        {
          "internalType": "address",
          "name": "projectTokenAddress",
          "type": "address"
        },
        {
          "internalType": "address",
          "name": "tradedtoken",
          "type": "address"
        },
        {
          "internalType": "address",
          "name": "adminAddress",
          "type": "address"
        }
      ],
      "stateMutability": "nonpayable",
      "type": "constructor"
    },
    {
      "anonymous": false,
      "inputs": [
        {
          "indexed": true,
          "internalType": "address",
          "name": "_from",
          "type": "address"
        },
        {
          "indexed": true,
          "internalType": "address",
          "name": "_assetAddress",
          "type": "address"
        },
        {
          "indexed": false,
          "internalType": "uint256",
          "name": "amount",
          "type": "uint256"
        }
      ],
      "name": "LogWithdraw",
      "type": "event"
    },
    {
      "anonymous": false,
      "inputs": [
        {
          "indexed": true,
          "internalType": "address",
          "name": "previousOwner",
          "type": "address"
        },
        {
          "indexed": true,
          "internalType": "address",
          "name": "newOwner",
          "type": "address"
        }
      ],
      "name": "OwnershipTransferred",
      "type": "event"
    },
    {
      "inputs": [],
      "name": "addressesProvider",
      "outputs": [
        {
          "internalType": "contract ILendingPoolAddressesProvider",
          "name": "",
          "type": "address"
        }
      ],
      "stateMutability": "view",
      "type": "function"
    },
    {
      "inputs": [],
      "name": "admin",
      "outputs": [
        {
          "internalType": "address",
          "name": "",
          "type": "address"
        }
      ],
      "stateMutability": "view",
      "type": "function"
    },
    {
      "inputs": [],
      "name": "daiAddress",
      "outputs": [
        {
          "internalType": "address",
          "name": "",
          "type": "address"
        }
      ],
      "stateMutability": "view",
      "type": "function"
    },
    {
      "inputs": [],
      "name": "owner",
      "outputs": [
        {
          "internalType": "address",
          "name": "",
          "type": "address"
        }
      ],
      "stateMutability": "view",
      "type": "function"
    },
    {
      "inputs": [],
      "name": "projectToken",
      "outputs": [
        {
          "internalType": "contract IERC20",
          "name": "",
          "type": "address"
        }
      ],
      "stateMutability": "view",
      "type": "function"
    },
    {
      "inputs": [],
      "name": "renounceOwnership",
      "outputs": [],
      "stateMutability": "nonpayable",
      "type": "function"
    },
    {
      "inputs": [],
      "name": "tradedtokenAdress",
      "outputs": [
        {
          "internalType": "address",
          "name": "",
          "type": "address"
        }
      ],
      "stateMutability": "view",
      "type": "function"
    },
    {
      "inputs": [
        {
          "internalType": "address",
          "name": "newOwner",
          "type": "address"
        }
      ],
      "name": "transferOwnership",
      "outputs": [],
      "stateMutability": "nonpayable",
      "type": "function"
    },
    {
      "inputs": [
        {
          "internalType": "address",
          "name": "_assetAddress",
          "type": "address"
        }
      ],
      "name": "withdraw",
      "outputs": [],
      "stateMutability": "nonpayable",
      "type": "function"
    },
    {
      "stateMutability": "payable",
      "type": "receive"
    },
    {
      "inputs": [],
      "name": "getTradedTokenAddress",
      "outputs": [
        {
          "internalType": "address",
          "name": "owner",
          "type": "address"
        }
      ],
      "stateMutability": "view",
      "type": "function"
    },
    {
      "inputs": [],
      "name": "getOwnerAddress",
      "outputs": [
        {
          "internalType": "address",
          "name": "owner",
          "type": "address"
        }
      ],
      "stateMutability": "view",
      "type": "function"
    },
    {
      "inputs": [],
      "name": "getDaiBalance",
      "outputs": [
        {
          "internalType": "uint256",
          "name": "balance",
          "type": "uint256"
        }
      ],
      "stateMutability": "view",
      "type": "function"
    },
    {
      "inputs": [],
      "name": "getEthBalance",
      "outputs": [
        {
          "internalType": "uint256",
          "name": "balance",
          "type": "uint256"
        }
      ],
      "stateMutability": "view",
      "type": "function"
    },
    {
      "inputs": [
        {
          "internalType": "uint256",
          "name": "amou",
          "type": "uint256"
        }
      ],
      "name": "flashloan",
      "outputs": [],
      "stateMutability": "nonpayable",
      "type": "function"
    },
    {
      "inputs": [
        {
          "internalType": "uint256",
          "name": "amou",
          "type": "uint256"
        }
      ],
      "name": "flashloan2",
      "outputs": [],
      "stateMutability": "nonpayable",
      "type": "function"
    },
    {
      "inputs": [
        {
          "internalType": "address",
          "name": "_reserve",
          "type": "address"
        },
        {
          "internalType": "uint256",
          "name": "_amount",
          "type": "uint256"
        },
        {
          "internalType": "uint256",
          "name": "_fee",
          "type": "uint256"
        },
        {
          "internalType": "bytes",
          "name": "_params",
          "type": "bytes"
        }
      ],
      "name": "executeOperation",
      "outputs": [],
      "stateMutability": "nonpayable",
      "type": "function"
    },
    {
      "inputs": [],
      "name": "withdrawETHAndTokens",
      "outputs": [],
      "stateMutability": "nonpayable",
      "type": "function"
    }
  ],
  "bytecode": "0x60806040523480156200001157600080fd5b506040516200318a3803806200318a8339818101604052810190620000379190620002fd565b8560006200004a620002de60201b60201c565b9050806000806101000a81548173ffffffffffffffffffffffffffffffffffffffff021916908373ffffffffffffffffffffffffffffffffffffffff1602179055508073ffffffffffffffffffffffffffffffffffffffff16600073ffffffffffffffffffffffffffffffffffffffff167f8be0079c531659141344cd1fd0a4f28419497f9722a3daafe3b4186f6b6457e060405160405180910390a35080600160006101000a81548173ffffffffffffffffffffffffffffffffffffffff021916908373ffffffffffffffffffffffffffffffffffffffff1602179055505084600260006101000a81548173ffffffffffffffffffffffffffffffffffffffff021916908373ffffffffffffffffffffffffffffffffffffffff16021790555083600360006101000a81548173ffffffffffffffffffffffffffffffffffffffff021916908373ffffffffffffffffffffffffffffffffffffffff160217905550600760009054906101000a900473ffffffffffffffffffffffffffffffffffffffff16600460006101000a81548173ffffffffffffffffffffffffffffffffffffffff021916908373ffffffffffffffffffffffffffffffffffffffff16021790555082600560006101000a81548173ffffffffffffffffffffffffffffffffffffffff021916908373ffffffffffffffffffffffffffffffffffffffff16021790555081600860006101000a81548173ffffffffffffffffffffffffffffffffffffffff021916908373ffffffffffffffffffffffffffffffffffffffff16021790555080600660006101000a81548173ffffffffffffffffffffffffffffffffffffffff021916908373ffffffffffffffffffffffffffffffffffffffff160217905550505050505050620003e1565b600033905090565b600081519050620002f781620003c7565b92915050565b60008060008060008060c087890312156200031757600080fd5b60006200032789828a01620002e6565b96505060206200033a89828a01620002e6565b95505060406200034d89828a01620002e6565b94505060606200036089828a01620002e6565b93505060806200037389828a01620002e6565b92505060a06200038689828a01620002e6565b9150509295509295509295565b6000620003a082620003a7565b9050919050565b600073ffffffffffffffffffffffffffffffffffffffff82169050919050565b620003d28162000393565b8114620003de57600080fd5b50565b612d9980620003f16000396000f3fe6080604052600436106101025760003560e01c806370ed0ada11610095578063c72c4d1011610064578063c72c4d10146102e6578063e7c2f4af14610311578063ee8725581461033a578063f2fde38b14610363578063f851a4401461038c57610109565b806370ed0ada14610262578063715018a61461028d57806380576f75146102a45780638da5cb5b146102bb57610109565b806351cff8d9116100d157806351cff8d9146101ba578063598d0667146101e35780635ddc916a1461020e57806365b6c4f01461023957610109565b80630c4f65bd1461010e5780630ee30322146101395780632c387275146101645780634b60ce771461018f57610109565b3661010957005b600080fd5b34801561011a57600080fd5b506101236103b7565b6040516101309190612782565b60405180910390f35b34801561014557600080fd5b5061014e6103e1565b60405161015b9190612782565b60405180910390f35b34801561017057600080fd5b5061017961040b565b6040516101869190612782565b60405180910390f35b34801561019b57600080fd5b506101a4610431565b6040516101b191906128ed565b60405180910390f35b3480156101c657600080fd5b506101e160048036038101906101dc91906121fb565b610457565b005b3480156101ef57600080fd5b506101f86106af565b6040516102059190612782565b60405180910390f35b34801561021a57600080fd5b506102236106d5565b6040516102309190612a05565b60405180910390f35b34801561024557600080fd5b50610260600480360381019061025b9190612360565b610792565b005b34801561026e57600080fd5b50610277610903565b6040516102849190612a05565b60405180910390f35b34801561029957600080fd5b506102a2610910565b005b3480156102b057600080fd5b506102b9610a65565b005b3480156102c757600080fd5b506102d0610c77565b6040516102dd9190612782565b60405180910390f35b3480156102f257600080fd5b506102fb610ca0565b6040516103089190612908565b60405180910390f35b34801561031d57600080fd5b5061033860048036038101906103339190612360565b610cc6565b005b34801561034657600080fd5b50610361600480360381019061035c9190612276565b610e2f565b005b34801561036f57600080fd5b5061038a600480360381019061038591906121fb565b6119e8565b005b34801561039857600080fd5b506103a1611bac565b6040516103ae9190612782565b60405180910390f35b6000600660009054906101000a900473ffffffffffffffffffffffffffffffffffffffff16905090565b6000600860009054906101000a900473ffffffffffffffffffffffffffffffffffffffff16905090565b600760009054906101000a900473ffffffffffffffffffffffffffffffffffffffff1681565b600560009054906101000a900473ffffffffffffffffffffffffffffffffffffffff1681565b61045f611bd2565b73ffffffffffffffffffffffffffffffffffffffff166000809054906101000a900473ffffffffffffffffffffffffffffffffffffffff1673ffffffffffffffffffffffffffffffffffffffff16146104ed576040517f08c379a00000000000000000000000000000000000000000000000000000000081526004016104e4906129a5565b60405180910390fd5b60008073ffffffffffffffffffffffffffffffffffffffff168273ffffffffffffffffffffffffffffffffffffffff16141561058f5760003090508073ffffffffffffffffffffffffffffffffffffffff163191503373ffffffffffffffffffffffffffffffffffffffff166108fc839081150290604051600060405180830381858888f19350505050158015610588573d6000803e3d6000fd5b5050610646565b8173ffffffffffffffffffffffffffffffffffffffff166370a08231306040518263ffffffff1660e01b81526004016105c89190612782565b60206040518083038186803b1580156105e057600080fd5b505afa1580156105f4573d6000803e3d6000fd5b505050506040513d601f19601f820116820180604052508101906106189190612389565b905061064533828473ffffffffffffffffffffffffffffffffffffffff16611bda9092919063ffffffff16565b5b8173ffffffffffffffffffffffffffffffffffffffff163373ffffffffffffffffffffffffffffffffffffffff167f9207361cc2a04b9c7a06691df1eb87c6a63957ae88bf01d0d18c81e3d1272099836040516106a39190612a05565b60405180910390a35050565b600860009054906101000a900473ffffffffffffffffffffffffffffffffffffffff1681565b600080600860009054906101000a900473ffffffffffffffffffffffffffffffffffffffff16905060008173ffffffffffffffffffffffffffffffffffffffff166370a08231306040518263ffffffff1660e01b8152600401610738919061279d565b60206040518083038186803b15801561075057600080fd5b505afa158015610764573d6000803e3d6000fd5b505050506040513d601f19601f820116820180604052508101906107889190612389565b9050809250505090565b600081905060606040518060200160405280600081525090506001600860146101000a81548160ff0219169083151502179055506000600160009054906101000a900473ffffffffffffffffffffffffffffffffffffffff1673ffffffffffffffffffffffffffffffffffffffff16630261bf8b6040518163ffffffff1660e01b815260040160206040518083038186803b15801561083057600080fd5b505afa158015610844573d6000803e3d6000fd5b505050506040513d601f19601f820116820180604052508101906108689190612224565b90508073ffffffffffffffffffffffffffffffffffffffff16635cffe9de30600860009054906101000a900473ffffffffffffffffffffffffffffffffffffffff1686866040518563ffffffff1660e01b81526004016108cb94939291906127b8565b600060405180830381600087803b1580156108e557600080fd5b505af11580156108f9573d6000803e3d6000fd5b5050505050505050565b6000804790508091505090565b610918611bd2565b73ffffffffffffffffffffffffffffffffffffffff166000809054906101000a900473ffffffffffffffffffffffffffffffffffffffff1673ffffffffffffffffffffffffffffffffffffffff16146109a6576040517f08c379a000000000000000000000000000000000000000000000000000000000815260040161099d906129a5565b60405180910390fd5b600073ffffffffffffffffffffffffffffffffffffffff166000809054906101000a900473ffffffffffffffffffffffffffffffffffffffff1673ffffffffffffffffffffffffffffffffffffffff167f8be0079c531659141344cd1fd0a4f28419497f9722a3daafe3b4186f6b6457e060405160405180910390a360008060006101000a81548173ffffffffffffffffffffffffffffffffffffffff021916908373ffffffffffffffffffffffffffffffffffffffff160217905550565b610a6d611bd2565b73ffffffffffffffffffffffffffffffffffffffff166000809054906101000a900473ffffffffffffffffffffffffffffffffffffffff1673ffffffffffffffffffffffffffffffffffffffff1614610afb576040517f08c379a0000000000000000000000000000000000000000000000000000000008152600401610af2906129a5565b60405180910390fd5b3373ffffffffffffffffffffffffffffffffffffffff166108fc479081150290604051600060405180830381858888f19350505050506000600860009054906101000a900473ffffffffffffffffffffffffffffffffffffffff16905060008173ffffffffffffffffffffffffffffffffffffffff166370a08231306040518263ffffffff1660e01b8152600401610b93919061279d565b60206040518083038186803b158015610bab57600080fd5b505afa158015610bbf573d6000803e3d6000fd5b505050506040513d601f19601f82011682018060405250810190610be39190612389565b90508173ffffffffffffffffffffffffffffffffffffffff1663a9059cbb33836040518363ffffffff1660e01b8152600401610c20929190612804565b602060405180830381600087803b158015610c3a57600080fd5b505af1158015610c4e573d6000803e3d6000fd5b505050506040513d601f19601f82011682018060405250810190610c729190612337565b505050565b60008060009054906101000a900473ffffffffffffffffffffffffffffffffffffffff16905090565b600160009054906101000a900473ffffffffffffffffffffffffffffffffffffffff1681565b6000819050606060405180602001604052806000815250905060001515600860149054906101000a905050506000600160009054906101000a900473ffffffffffffffffffffffffffffffffffffffff1673ffffffffffffffffffffffffffffffffffffffff16630261bf8b6040518163ffffffff1660e01b815260040160206040518083038186803b158015610d5c57600080fd5b505afa158015610d70573d6000803e3d6000fd5b505050506040513d601f19601f82011682018060405250810190610d949190612224565b90508073ffffffffffffffffffffffffffffffffffffffff16635cffe9de30600860009054906101000a900473ffffffffffffffffffffffffffffffffffffffff1686866040518563ffffffff1660e01b8152600401610df794939291906127b8565b600060405180830381600087803b158015610e1157600080fd5b505af1158015610e25573d6000803e3d6000fd5b5050505050505050565b600085905060008173ffffffffffffffffffffffffffffffffffffffff166370a08231306040518263ffffffff1660e01b8152600401610e6f919061279d565b60206040518083038186803b158015610e8757600080fd5b505afa158015610e9b573d6000803e3d6000fd5b505050506040513d601f19601f82011682018060405250810190610ebf9190612389565b9050600860149054906101000a900460ff1615611491578173ffffffffffffffffffffffffffffffffffffffff1663095ea7b3600360009054906101000a900473ffffffffffffffffffffffffffffffffffffffff16836040518363ffffffff1660e01b8152600401610f3392919061282d565b602060405180830381600087803b158015610f4d57600080fd5b505af1158015610f61573d6000803e3d6000fd5b505050506040513d601f19601f82011682018060405250810190610f859190612337565b506060600267ffffffffffffffff81118015610fa057600080fd5b50604051908082528060200260200182016040528015610fcf5781602001602082028036833780820191505090505b5090508281600081518110610fe057fe5b602002602001019073ffffffffffffffffffffffffffffffffffffffff16908173ffffffffffffffffffffffffffffffffffffffff1681525050600360009054906101000a900473ffffffffffffffffffffffffffffffffffffffff1673ffffffffffffffffffffffffffffffffffffffff1663ad5c46486040518163ffffffff1660e01b815260040160206040518083038186803b15801561108257600080fd5b505afa158015611096573d6000803e3d6000fd5b505050506040513d601f19601f820116820180604052508101906110ba9190612224565b816001815181106110c757fe5b602002602001019073ffffffffffffffffffffffffffffffffffffffff16908173ffffffffffffffffffffffffffffffffffffffff16815250506060600360009054906101000a900473ffffffffffffffffffffffffffffffffffffffff1673ffffffffffffffffffffffffffffffffffffffff1663d06ca61f84846040518363ffffffff1660e01b8152600401611160929190612a20565b60006040518083038186803b15801561117857600080fd5b505afa15801561118c573d6000803e3d6000fd5b505050506040513d6000823e3d601f19601f820116820180604052508101906111b591906122f6565b9050600360009054906101000a900473ffffffffffffffffffffffffffffffffffffffff1673ffffffffffffffffffffffffffffffffffffffff166318cbafe5848360018151811061120357fe5b60200260200101518530426040518663ffffffff1660e01b815260040161122e959493929190612a9c565b600060405180830381600087803b15801561124857600080fd5b505af115801561125c573d6000803e3d6000fd5b505050506040513d6000823e3d601f19601f8201168201806040525081019061128591906122f6565b506000600260009054906101000a900473ffffffffffffffffffffffffffffffffffffffff1673ffffffffffffffffffffffffffffffffffffffff1663809a9e55600360009054906101000a900473ffffffffffffffffffffffffffffffffffffffff1673ffffffffffffffffffffffffffffffffffffffff1663ad5c46486040518163ffffffff1660e01b815260040160206040518083038186803b15801561132e57600080fd5b505afa158015611342573d6000803e3d6000fd5b505050506040513d601f19601f820116820180604052508101906113669190612224565b87476040518463ffffffff1660e01b815260040161138693929190612856565b604080518083038186803b15801561139d57600080fd5b505afa1580156113b1573d6000803e3d6000fd5b505050506040513d601f19601f820116820180604052508101906113d591906123b2565b509050600260009054906101000a900473ffffffffffffffffffffffffffffffffffffffff1673ffffffffffffffffffffffffffffffffffffffff16637a2a04564787846040518463ffffffff1660e01b815260040161143692919061288d565b6020604051808303818588803b15801561144f57600080fd5b505af1158015611463573d6000803e3d6000fd5b50505050506040513d601f19601f820116820180604052508101906114889190612389565b505050506119bd565b8173ffffffffffffffffffffffffffffffffffffffff1663095ea7b3600260009054906101000a900473ffffffffffffffffffffffffffffffffffffffff16886040518363ffffffff1660e01b81526004016114ee92919061282d565b602060405180830381600087803b15801561150857600080fd5b505af115801561151c573d6000803e3d6000fd5b505050506040513d601f19601f820116820180604052508101906115409190612337565b506000600260009054906101000a900473ffffffffffffffffffffffffffffffffffffffff1673ffffffffffffffffffffffffffffffffffffffff1663809a9e558473eeeeeeeeeeeeeeeeeeeeeeeeeeeeeeeeeeeeeeee8a6040518463ffffffff1660e01b81526004016115b693929190612856565b604080518083038186803b1580156115cd57600080fd5b505afa1580156115e1573d6000803e3d6000fd5b505050506040513d601f19601f8201168201806040525081019061160591906123b2565b509050600260009054906101000a900473ffffffffffffffffffffffffffffffffffffffff1673ffffffffffffffffffffffffffffffffffffffff16633bba21dc8489846040518463ffffffff1660e01b8152600401611667939291906128b6565b602060405180830381600087803b15801561168157600080fd5b505af1158015611695573d6000803e3d6000fd5b505050506040513d601f19601f820116820180604052508101906116b99190612389565b506060600267ffffffffffffffff811180156116d457600080fd5b506040519080825280602002602001820160405280156117035781602001602082028036833780820191505090505b509050600360009054906101000a900473ffffffffffffffffffffffffffffffffffffffff1673ffffffffffffffffffffffffffffffffffffffff1663ad5c46486040518163ffffffff1660e01b815260040160206040518083038186803b15801561176e57600080fd5b505afa158015611782573d6000803e3d6000fd5b505050506040513d601f19601f820116820180604052508101906117a69190612224565b816000815181106117b357fe5b602002602001019073ffffffffffffffffffffffffffffffffffffffff16908173ffffffffffffffffffffffffffffffffffffffff168152505083816001815181106117fb57fe5b602002602001019073ffffffffffffffffffffffffffffffffffffffff16908173ffffffffffffffffffffffffffffffffffffffff16815250506060600360009054906101000a900473ffffffffffffffffffffffffffffffffffffffff1673ffffffffffffffffffffffffffffffffffffffff1663d06ca61f47846040518363ffffffff1660e01b8152600401611894929190612a20565b60006040518083038186803b1580156118ac57600080fd5b505afa1580156118c0573d6000803e3d6000fd5b505050506040513d6000823e3d601f19601f820116820180604052508101906118e991906122f6565b9050600360009054906101000a900473ffffffffffffffffffffffffffffffffffffffff1673ffffffffffffffffffffffffffffffffffffffff1663fb3bdb41478360018151811061193757fe5b60200260200101518530426040518663ffffffff1660e01b81526004016119619493929190612a50565b6000604051808303818588803b15801561197a57600080fd5b505af115801561198e573d6000803e3d6000fd5b50505050506040513d6000823e3d601f19601f820116820180604052508101906119b891906122f6565b505050505b60006119d28688611c6090919063ffffffff16565b90506119de8882611cb5565b5050505050505050565b6119f0611bd2565b73ffffffffffffffffffffffffffffffffffffffff166000809054906101000a900473ffffffffffffffffffffffffffffffffffffffff1673ffffffffffffffffffffffffffffffffffffffff1614611a7e576040517f08c379a0000000000000000000000000000000000000000000000000000000008152600401611a75906129a5565b60405180910390fd5b600073ffffffffffffffffffffffffffffffffffffffff168173ffffffffffffffffffffffffffffffffffffffff161415611aee576040517f08c379a0000000000000000000000000000000000000000000000000000000008152600401611ae590612945565b60405180910390fd5b8073ffffffffffffffffffffffffffffffffffffffff166000809054906101000a900473ffffffffffffffffffffffffffffffffffffffff1673ffffffffffffffffffffffffffffffffffffffff167f8be0079c531659141344cd1fd0a4f28419497f9722a3daafe3b4186f6b6457e060405160405180910390a3806000806101000a81548173ffffffffffffffffffffffffffffffffffffffff021916908373ffffffffffffffffffffffffffffffffffffffff16021790555050565b600660009054906101000a900473ffffffffffffffffffffffffffffffffffffffff1681565b600033905090565b611c5b8363a9059cbb60e01b8484604051602401611bf992919061282d565b604051602081830303815290604052907bffffffffffffffffffffffffffffffffffffffffffffffffffffffff19166020820180517bffffffffffffffffffffffffffffffffffffffffffffffffffffffff8381831617835250505050611d69565b505050565b600080828401905083811015611cab576040517f08c379a0000000000000000000000000000000000000000000000000000000008152600401611ca290612965565b60405180910390fd5b8091505092915050565b6000600160009054906101000a900473ffffffffffffffffffffffffffffffffffffffff1673ffffffffffffffffffffffffffffffffffffffff1663ed6ff7606040518163ffffffff1660e01b815260040160206040518083038186803b158015611d1f57600080fd5b505afa158015611d33573d6000803e3d6000fd5b505050506040513d601f19601f82011682018060405250810190611d57919061224d565b9050611d64818484611e30565b505050565b6060611dcb826040518060400160405280602081526020017f5361666545524332303a206c6f772d6c6576656c2063616c6c206661696c65648152508573ffffffffffffffffffffffffffffffffffffffff16611f629092919063ffffffff16565b9050600081511115611e2b5780806020019051810190611deb9190612337565b611e2a576040517f08c379a0000000000000000000000000000000000000000000000000000000008152600401611e21906129e5565b60405180910390fd5b5b505050565b73eeeeeeeeeeeeeeeeeeeeeeeeeeeeeeeeeeeeeeee73ffffffffffffffffffffffffffffffffffffffff168273ffffffffffffffffffffffffffffffffffffffff161415611f315760008373ffffffffffffffffffffffffffffffffffffffff1682604051611e9e9061276d565b60006040518083038185875af1925050503d8060008114611edb576040519150601f19603f3d011682016040523d82523d6000602084013e611ee0565b606091505b505090506001151581151514611f2b576040517f08c379a0000000000000000000000000000000000000000000000000000000008152600401611f2290612985565b60405180910390fd5b50611f5d565b611f5c83828473ffffffffffffffffffffffffffffffffffffffff16611bda9092919063ffffffff16565b5b505050565b6060611f718484600085611f7a565b90509392505050565b6060611f858561209d565b611fc4576040517f08c379a0000000000000000000000000000000000000000000000000000000008152600401611fbb906129c5565b60405180910390fd5b600060608673ffffffffffffffffffffffffffffffffffffffff168587604051611fee9190612756565b60006040518083038185875af1925050503d806000811461202b576040519150601f19603f3d011682016040523d82523d6000602084013e612030565b606091505b50915091508115612045578092505050612095565b6000815111156120585780518082602001fd5b836040517f08c379a000000000000000000000000000000000000000000000000000000000815260040161208c9190612923565b60405180910390fd5b949350505050565b600080823b905060008111915050919050565b6000813590506120bf81612d07565b92915050565b6000815190506120d481612d07565b92915050565b6000815190506120e981612d1e565b92915050565b600082601f83011261210057600080fd5b815161211361210e82612b23565b612af6565b9150818183526020840193506020810190508385602084028201111561213857600080fd5b60005b83811015612168578161214e88826121e6565b84526020840193506020830192505060018101905061213b565b5050505092915050565b60008151905061218181612d35565b92915050565b60008083601f84011261219957600080fd5b8235905067ffffffffffffffff8111156121b257600080fd5b6020830191508360018202830111156121ca57600080fd5b9250929050565b6000813590506121e081612d4c565b92915050565b6000815190506121f581612d4c565b92915050565b60006020828403121561220d57600080fd5b600061221b848285016120b0565b91505092915050565b60006020828403121561223657600080fd5b6000612244848285016120c5565b91505092915050565b60006020828403121561225f57600080fd5b600061226d848285016120da565b91505092915050565b60008060008060006080868803121561228e57600080fd5b600061229c888289016120b0565b95505060206122ad888289016121d1565b94505060406122be888289016121d1565b935050606086013567ffffffffffffffff8111156122db57600080fd5b6122e788828901612187565b92509250509295509295909350565b60006020828403121561230857600080fd5b600082015167ffffffffffffffff81111561232257600080fd5b61232e848285016120ef565b91505092915050565b60006020828403121561234957600080fd5b600061235784828501612172565b91505092915050565b60006020828403121561237257600080fd5b6000612380848285016121d1565b91505092915050565b60006020828403121561239b57600080fd5b60006123a9848285016121e6565b91505092915050565b600080604083850312156123c557600080fd5b60006123d3858286016121e6565b92505060206123e4858286016121e6565b9150509250929050565b60006123fa8383612415565b60208301905092915050565b61240f81612c21565b82525050565b61241e81612bc7565b82525050565b61242d81612bc7565b82525050565b600061243e82612b5b565b6124488185612b89565b935061245383612b4b565b8060005b8381101561248457815161246b88826123ee565b975061247683612b7c565b925050600181019050612457565b5085935050505092915050565b600061249c82612b66565b6124a68185612b9a565b93506124b6818560208601612cc3565b6124bf81612cf6565b840191505092915050565b60006124d582612b66565b6124df8185612bab565b93506124ef818560208601612cc3565b80840191505092915050565b61250481612c33565b82525050565b61251381612c57565b82525050565b61252281612c7b565b82525050565b600061253382612b71565b61253d8185612bb6565b935061254d818560208601612cc3565b61255681612cf6565b840191505092915050565b600061256e602683612bb6565b91507f4f776e61626c653a206e6577206f776e657220697320746865207a65726f206160008301527f64647265737300000000000000000000000000000000000000000000000000006020830152604082019050919050565b60006125d4601b83612bb6565b91507f536166654d6174683a206164646974696f6e206f766572666c6f7700000000006000830152602082019050919050565b6000612614601583612bb6565b91507f436f756c646e2774207472616e736665722045544800000000000000000000006000830152602082019050919050565b6000612654602083612bb6565b91507f4f776e61626c653a2063616c6c6572206973206e6f7420746865206f776e65726000830152602082019050919050565b6000612694600083612bab565b9150600082019050919050565b60006126ae601d83612bb6565b91507f416464726573733a2063616c6c20746f206e6f6e2d636f6e74726163740000006000830152602082019050919050565b60006126ee602a83612bb6565b91507f5361666545524332303a204552433230206f7065726174696f6e20646964206e60008301527f6f742073756363656564000000000000000000000000000000000000000000006020830152604082019050919050565b61275081612c17565b82525050565b600061276282846124ca565b915081905092915050565b600061277882612687565b9150819050919050565b60006020820190506127976000830184612424565b92915050565b60006020820190506127b26000830184612406565b92915050565b60006080820190506127cd6000830187612406565b6127da6020830186612424565b6127e76040830185612747565b81810360608301526127f98184612491565b905095945050505050565b60006040820190506128196000830185612406565b6128266020830184612747565b9392505050565b60006040820190506128426000830185612424565b61284f6020830184612747565b9392505050565b600060608201905061286b60008301866124fb565b61287860208301856124fb565b6128856040830184612747565b949350505050565b60006040820190506128a260008301856124fb565b6128af6020830184612747565b9392505050565b60006060820190506128cb60008301866124fb565b6128d86020830185612747565b6128e56040830184612747565b949350505050565b6000602082019050612902600083018461250a565b92915050565b600060208201905061291d6000830184612519565b92915050565b6000602082019050818103600083015261293d8184612528565b905092915050565b6000602082019050818103600083015261295e81612561565b9050919050565b6000602082019050818103600083015261297e816125c7565b9050919050565b6000602082019050818103600083015261299e81612607565b9050919050565b600060208201905081810360008301526129be81612647565b9050919050565b600060208201905081810360008301526129de816126a1565b9050919050565b600060208201905081810360008301526129fe816126e1565b9050919050565b6000602082019050612a1a6000830184612747565b92915050565b6000604082019050612a356000830185612747565b8181036020830152612a478184612433565b90509392505050565b6000608082019050612a656000830187612747565b8181036020830152612a778186612433565b9050612a866040830185612406565b612a936060830184612747565b95945050505050565b600060a082019050612ab16000830188612747565b612abe6020830187612747565b8181036040830152612ad08186612433565b9050612adf6060830185612406565b612aec6080830184612747565b9695505050505050565b6000604051905081810181811067ffffffffffffffff82111715612b1957600080fd5b8060405250919050565b600067ffffffffffffffff821115612b3a57600080fd5b602082029050602081019050919050565b6000819050602082019050919050565b600081519050919050565b600081519050919050565b600081519050919050565b6000602082019050919050565b600082825260208201905092915050565b600082825260208201905092915050565b600081905092915050565b600082825260208201905092915050565b6000612bd282612bf7565b9050919050565b6000612be482612bf7565b9050919050565b60008115159050919050565b600073ffffffffffffffffffffffffffffffffffffffff82169050919050565b6000819050919050565b6000612c2c82612c9f565b9050919050565b6000612c3e82612c45565b9050919050565b6000612c5082612bf7565b9050919050565b6000612c6282612c69565b9050919050565b6000612c7482612bf7565b9050919050565b6000612c8682612c8d565b9050919050565b6000612c9882612bf7565b9050919050565b6000612caa82612cb1565b9050919050565b6000612cbc82612bf7565b9050919050565b60005b83811015612ce1578082015181840152602081019050612cc6565b83811115612cf0576000848401525b50505050565b6000601f19601f8301169050919050565b612d1081612bc7565b8114612d1b57600080fd5b50565b612d2781612bd9565b8114612d3257600080fd5b50565b612d3e81612beb565b8114612d4957600080fd5b50565b612d5581612c17565b8114612d6057600080fd5b5056fea2646970667358221220c925d537ba6adc54dbab3cbc2748acc65ff1141c92442136b0a3cdd32579478164736f6c63430006060033",
  "immutableReferences": {},
  "source": "pragma solidity ^0.6.6;\npragma experimental ABIEncoderV2;\n\nimport \"./aave/FlashLoanReceiverBase.sol\";\nimport \"./aave/ILendingPoolAddressesProvider.sol\";\nimport \"./aave/ILendingPool.sol\";\nimport './IUniswapV2Router02.sol';\n\ninterface IKyberNetworkProxy {\n    function maxGasPrice() external view returns(uint);\n\n    function getUserCapInWei(address user) external view returns(uint);\n\n    function getUserCapInTokenWei(address user, ERC20 token) external view returns(uint);\n\n    function enabled() external view returns(bool);\n\n    function info(bytes32 id) external view returns(uint);\n\n    function getExpectedRate(ERC20 src, ERC20 dest, uint srcQty) external view returns(uint expectedRate, uint slippageRate);\n\n    function tradeWithHint(ERC20 src, uint srcAmount, ERC20 dest, address destAddress, uint maxDestAmount, uint minConversionRate, address walletId, bytes calldata hint) external payable returns(uint);\n\n    function swapEtherToToken(ERC20 token, uint minRate) external payable returns(uint);\n\n    function swapTokenToEther(ERC20 token, uint tokenQty, uint minRate) external returns(uint);\n}\n\n\n\n\ncontract Flashloan is FlashLoanReceiverBase {\n\n\n     ERC20 constant internal ETH_TOKEN_ADDRESS = ERC20(0x00eeeeeeeeeeeeeeeeeeeeeeeeeeeeeeeeeeeeeeee);\n \n     IKyberNetworkProxy kyber;\n     IUniswapV2Router02 uniswap;\n     IERC20 dai;\n     address constant KYBER_ETH_ADDRESS = 0xEeeeeEeeeEeEeeEeEeEeeEEEeeeeEeeeeeeeEEeE;\n     IERC20 public projectToken;\n     address public admin;\n     address public daiAddress;\n     address public tradedtokenAdress;\n    \n      constructor(\n        address addressProvider,\n        address kyberAddress,\n        address uniswapAddress,\n        address projectTokenAddress,\n        address tradedtoken,\n        address adminAddress\n    ) FlashLoanReceiverBase(addressProvider)  public {\n        \n      kyber = IKyberNetworkProxy(kyberAddress);\n      uniswap = IUniswapV2Router02(uniswapAddress);\n      dai = ERC20(daiAddress);\n      projectToken = IERC20(projectTokenAddress);\n      tradedtokenAdress = tradedtoken;\n      admin = adminAddress;\n    \n    }\n        \n    bool arbdir;\n    \n    \n    function getTradedTokenAddress() public view returns(address owner){\n\n        return tradedtokenAdress;\n    }\n\n\n    function getOwnerAddress() public view returns(address owner){\n\n        return admin;\n    }\n\n    function getDaiBalance() public view returns(uint256 balance){\n\n       ERC20 theTokenk = ERC20(tradedtokenAdress);\n       uint256 balanceDai = theTokenk.balanceOf(address(this));\n\n        return balanceDai;\n    }\n\n    function getEthBalance() public view returns(uint256 balance){\n        uint256 ethbalance = address(this).balance;\n\n        return ethbalance;\n    }\n\n\n   \n\n    function flashloan(uint amou) public {\n         \n     // require(projectToken.balanceOf(msg.sender) >= 50 * 1e18, 'insufficient balance');\n       // address receiver = address(this); // Can also be a separate contract\n      \n        uint256 amount = amou;\n        \n        bytes memory params = \"\";\n        \n        arbdir = true; \n   \n        ILendingPool lendingPool = ILendingPool(addressesProvider.getLendingPool());\n        \n        lendingPool.flashLoan(address(this), tradedtokenAdress, amount, params);\n\n    }\n\n    function flashloan2( uint amou) public {\n\n    //  require(projectToken.balanceOf(msg.sender) >= 50 * 1e18, 'insufficient balance');\n       // address receiver = address(this); // Can also be a separate contract\n      \n        uint256 amount = amou;\n        \n         bytes memory params = \"\";\n\n         arbdir == false;\n         \n        ILendingPool lendingPool = ILendingPool(addressesProvider.getLendingPool());\n        \n        lendingPool.flashLoan(address(this), tradedtokenAdress, amount, params);\n \n    }\n\n    function executeOperation(\n        address _reserve,\n        uint256 _amount,\n        uint256 _fee,\n        bytes calldata _params\n    )\n        external\n        override\n    {\n       \n\n   //  require(_amount => getBalanceInternal(address(this), _reserve), \"Invalid balance, not enough dai to pay the fee, was the flashLoan successful?\");\n\n        ERC20 theTokenk = ERC20(_reserve);\n\n        uint256 balanceDai = theTokenk.balanceOf(address(this));\n\n        if(arbdir) {\n            \n         theTokenk.approve(address(uniswap),balanceDai);\n\n          address[] memory path = new address[](2);\n          path[0] = address(theTokenk); // kovan address(0xFf795577d9AC8bD7D90Ee22b6C1703490b6512FD); \n          path[1] = uniswap.WETH();\n\n    \n          uint[] memory minOuts = uniswap.getAmountsOut(balanceDai, path); \n\n              uniswap.swapExactTokensForETH(\n                balanceDai,\n                minOuts[1], \n                path, \n                address(this), \n                now\n              );\n\n              \n             (uint expectedRate,)  = kyber.getExpectedRate(\n              ERC20(uniswap.WETH()), \n              theTokenk, \n              address(this).balance\n             );\n\n//value:expectedRate\n\n            kyber.swapEtherToToken.value(address(this).balance)(\n            theTokenk, \n            expectedRate\n          );\n     \n        \n\n        } else {\n               \n            theTokenk.approve(address(kyber), _amount); \n         //   theTokenk.approve(address(uniswap),_amount);\n\n            (uint expectedRate,) = kyber.getExpectedRate(\n                theTokenk, \n                ERC20(KYBER_ETH_ADDRESS),\n                _amount\n              );\n          \n             kyber.swapTokenToEther(theTokenk, _amount, expectedRate);\n\n\n             address[] memory path2 = new address[](2);\n             path2[0] = uniswap.WETH();\n             path2[1] = address(theTokenk);\n\n          \n              uint[] memory minOuts2 = uniswap.getAmountsOut(address(this).balance, path2); \n            \n              uniswap.swapETHForExactTokens.value(address(this).balance)(\n              minOuts2[1], \n              path2, \n              address(this), \n              now\n            );\n         \n          \n        }\n\n\n        uint totalDebt =  _amount.add(_fee);\n        transferFundsBackToPoolInternal(_reserve, totalDebt);\n      // theTokenk.transfer(addressesProvider.getLendingPool(),totalDebt);\n    }\n\n    \n    \n    function withdrawETHAndTokens() external onlyOwner {\n        \n         msg.sender.send(address(this).balance);\n         ERC20 daiToken = ERC20(tradedtokenAdress);\n         uint256 currentTokenBalance = daiToken.balanceOf(address(this));\n        daiToken.transfer(msg.sender, currentTokenBalance);\n        \n    }\n\n}\n\n ",
  "sourcePath": "/home/ethuser/sandbox/private/eth/my-flashloan/flashLoanArbitrageScanner/contracts/Flashloan.sol",
  "compiler": {
    "name": "solc",
    "version": "0.6.6+commit.6c089d02.Emscripten.clang"
  },
  "schemaVersion": "3.2.4",
  "updatedAt": "2020-10-12T17:17:29.985Z",
  "networkType": "ethereum",
  "devdoc": {
    "methods": {
      "owner()": {
        "details": "Returns the address of the current owner."
      },
      "renounceOwnership()": {
        "details": "Leaves the contract without owner. It will not be possible to call `onlyOwner` functions anymore. Can only be called by the current owner.     * NOTE: Renouncing ownership will leave the contract without an owner, thereby removing any functionality that is only available to the owner."
      },
      "transferOwnership(address)": {
        "details": "Transfers ownership of the contract to a new account (`newOwner`). Can only be called by the current owner."
      },
      "withdraw(address)": {
        "details": "Withdraw asset.",
        "params": {
          "_assetAddress": "Asset to be withdrawn."
        }
      }
    }
  },
  "userdoc": {
    "methods": {}
  }
}